:020000040800F2
:10000000F04B00208D0100089501000897010008C1
:10001000990100089B0100089D01000800000000F4
:100020000000000000000000000000009F01000828
:10003000A101000800000000A3010008A5010008BC
:10004000A7010008A7010008A7010008A7010008F0
:10005000A7010008A7010008A7010008A7010008E0
:10006000A7010008A7010008A7010008A7010008D0
:10007000A7010008ED050008A7010008A701000876
:10008000A7010008A7010008A7010008A7010008B0
:10009000A7010008A7010008A7010008A7010008A0
:1000A000A7010008A7010008A7010008A701000890
:1000B0005D0B00087D0B0008D10B0008A7010008AC
:1000C000A7010008A7010008A7010008A701000870
:1000D000A7010008A7010008A7010008A701000860
:1000E000A7010008A7010008A701000800F002F816
:1000F00000F03CF80AA090E8000C82448344AAF186
:100100000107DA4501D100F031F8AFF2090EBAE883
:100110000F0013F0010F18BFFB1A43F0010318473B
:100120005C3B00007C3B0000103A24BF78C878C1DB
:10013000FAD8520724BF30C830C144BF04680C60ED
:10014000704700000023002400250026103A28BF35
:1001500078C1FBD8520728BF30C148BF0B60704739
:100160001FB500F0D3F81FBD10B510BD00F039F970
:100170001146FFF7F5FF03F08FFB00F057F903B4CA
:10018000FFF7F2FF03BC00F05BF90000094880476D
:1001900009480047FEE7FEE7FEE7FEE7FEE7FEE769
:1001A000FEE7FEE7FEE7FEE704480549054A064B81
:1001B00070470000FD0A0008ED000008F04500202F
:1001C000F04B0020F0470020F047002010B5431C02
:1001D00002E010F8011B71B18107FAD14FF0013232
:1001E00002C88C1A8C4314EAC211F9D0C01A0A064C
:1001F00003D0C01E10BDC01A10BD0A0401D0801E5D
:1002000010BD0902FCD0401E10BD032A40F2308010
:1002100010F0030C00F0158011F8013BBCF1020F47
:10022000624498BF11F801CB00F8013B38BF11F8C8
:10023000013BA2F1040298BF00F801CB38BF00F8DF
:10024000013B11F0030300F07380083AC0F008800E
:1002500051F8043B083A51F804CBA0E80810F5E740
:10026000121D5CBF51F8043B40F8043BAFF3008023
:10027000D20724BF11F8013B11F801CB48BF11F898
:10028000012B24BF00F8013B00F801CB48BF00F868
:10029000012B704701B5FFF7B8FF01BD01F0FF0367
:1002A000114601B543EA032242EA024200F00BF88C
:1002B00001BD02F0FF0343EA032242EA024200F0DA
:1002C00002B84FF000020429C0F0128010F0030CB5
:1002D00000F06280CCF1040CBCF1020F18BF00F8F2
:1002E000012BA8BF20F8022BA1EB0C0100F054B8A1
:1002F0005FEAC17C24BF00F8012B00F8012B48BF46
:1003000000F8012B704770477047704770B5064C76
:100310007C44064D7D4403E0206820448047241D32
:10032000AC42F9D170BD0000883900008839000066
:1003300010B5203AC0F00B80B1E81850203AA0E880
:100340001850B1E81850A0E81850BFF4F5AF5FEAB4
:10035000027C24BFB1E81850A0E8185044BF18C967
:1003600018C0BDE810405FEA827C24BF51F8043B0E
:1003700040F8043B08BF7047D20728BF31F8023B62
:1003800048BF11F8012B28BF20F8023B48BF00F8F6
:10039000012B70474FF0000200B513469446964675
:1003A000203922BFA0E80C50A0E80C50B1F1200188
:1003B000BFF4F7AF090728BFA0E80C5048BF0CC036
:1003C0005DF804EB890028BF40F8042B08BF704794
:1003D00048BF20F8022B11F0804F18BF00F8012B06
:1003E0007047754600F032F8AE4605006946534640
:1003F00020F00700854618B020B5FFF7D5FEBDE810
:1004000020404FF000064FF000074FF000084FF07B
:10041000000B21F00701AC46ACE8C009ACE8C0090C
:10042000ACE8C009ACE8C0098D46704710B5044679
:10043000AFF300802046BDE81040FFF7A0BE0000EB
:1004400001491820ABBEFEE72600020000487047B5
:100450008C450020704721B1426842F480624260BE
:1004600003E0426822F480624260704721B18268F2
:1004700042F00102826003E0826822F001028260A1
:1004800070470A460021816821F4E04111438160F0
:100490007047014600208A6802F004020AB1012078
:1004A00000E00020704708B502460020009000924E
:1004B00001F12800009B184400900098006880B269
:1004C00008BD014600208A6802F008020AB1012036
:1004D00000E000207047000030B5024600200023F5
:1004E00050680F4C20400D790C6844EA05242043E5
:1004F000506090680B4C2040D1E902542C434D7958
:1005000044EA450420439060D06A20F470000C7CDB
:10051000641EE4B2234340EA0350D06230BD0000C1
:10052000FFFEF0FFFDF7F1FFF0B504461546002091
:1005300000220026092911DDE068A1F10A0707EB76
:10054000470C072707FA0CF29043A1F10A0707EBC3
:10055000470703FA07F21043E0600CE0206901EB63
:10056000410C072707FA0CF2904301EB410703FA0D
:1005700007F210432061A06BC0F30156EF1C06F197
:10058000010CA7EB0C0707EB870C1F2707FA0CF2EF
:100590009043EF1C06F1010CA7EB0C0707EB870754
:1005A00001FA07F21043A063F0BD10B50A4600211E
:1005B0000023816B21F44011531E41EA03518163F2
:1005C00010BD816841F008018160704721B18268E7
:1005D00042F40212826003E0826822F40212826016
:1005E0007047816841F004018160704710B50122B5
:1005F0000221074800F026F90021064800F01CF807
:100600004FF4007000F00AF801200349087010BD93
:1006100000080140300002400000002000F080513E
:1006200011B10349086001E00249486070470000C9
:10063000040402400000024021B1026842F00102BD
:10064000026004E002684FF6FE731A4002607047D1
:100650001AB103680B43036002E003688B43036035
:10066000704710B50022026847F6F0739A430C6A8F
:100670008B6823430C6923434C6923438C692343D0
:10068000CC6923434C6A23438C6A23431A43026098
:10069000CB6843600B6883604B68C36010BD2DE975
:1006A000F0410246002500260020002300240027F8
:1006B00091F803C00CF00F0591F803C00CF0100C7A
:1006C000BCF1000F03D091F802C04CEA050591F887
:1006D00000C0BCF1000F31D0146800202BE04FF0B7
:1006E000010C0CFA00F3B1F800C00CEA03069E42BC
:1006F00020D183004FF00F0C0CFA03F7BC4305FA2E
:1007000003FC4CEA040491F803C0BCF1280F06D1A5
:100710004FF0010C0CFA00FCC2F814C00AE091F88A
:1007200003C0BCF1480F05D14FF0010C0CFA00FCDE
:10073000C2F810C0401C0828D1D31460B1F800C022
:10074000BCF1FF0F34DD546800202EE000F1080CEE
:100750004FF0010808FA0CF3B1F800C00CEA0306E8
:100760009E4221D183004FF00F0C0CFA03F7BC43DB
:1007700005FA03FC4CEA040491F803C0BCF1280F0D
:1007800005D100F1080C08FA0CF8C2F8148091F8B1
:1007900003C0BCF1480F07D100F1080C4FF001086D
:1007A00008FA0CF8C2F81080401C0828CED3546018
:1007B000BDE8F081F0B50A460023002400210025A1
:1007C00000F00046B6F1004F02D11D4EF16901E084
:1007D0001B4E7168C0F3034583B200F44016B6F5B2
:1007E000401F08D121F07061154E766826F07066C2
:1007F000134F7E6012E000F48016B6F5801F06D11C
:10080000032606FA05F4A14341F0706106E0460DA7
:10081000360103FA06F6B14341F0706122B1460D8C
:10082000360103FA06F6314300F00046B6F1004FF8
:1008300002D1034EF16101E0014E7160F0BD000094
:10084000000001400AB1016100E041617047000011
:1008500001460020034A506820F44040084350609D
:10086000704700000010024029B1064A5269024355
:10087000044B5A6104E0034A52698243014B5A61B6
:10088000704700000010024029B1064AD2690243B5
:10089000044BDA6104E0034AD2698243014BDA6116
:1008A000704700000010024029B1064A92690243D5
:1008B000044B9A6104E0034A92698243014B9A61B6
:1008C000704700000010024030B5002100220024D3
:1008D00000232D4D6D6805F00C0121B1042905D0D0
:1008E000082923D105E0294D056022E0274D056048
:1008F0001FE0254D6D6805F47012234D6D6805F4F9
:100900008034022505EB92421CB9214D5543056008
:100910000BE01D4D6D6805F400351DB11C4D5543B0
:10092000056002E0194D5543056002E0174D056072
:1009300000BF00BF144D6D6805F0F0010909154DA9
:100940006B5C0568DD4045600F4D6D6805F4E06146
:10095000090A104D6B5C4568DD4085600A4D6D6885
:1009600005F46051C90A0B4D6B5C4568DD40C560FC
:10097000054D6D6805F44041890B074D6B5CC568FA
:10098000B5FBF3F5056130BD0010024000127A009E
:1009900000093D00730000208300002021B102887F
:1009A00042F04002028004E002884FF6BF731A4012
:1009B000028070471AB183880B43838002E08388EA
:1009C0008B43838070470246002013890B400BB194
:1009D000012000E00020704710B50022028802F4D8
:1009E00041520B884C8823438C882343CC88234373
:1009F0000C8923434C8923438C892343CC8923438B
:100A00001A430280838B4FF2FF74234083830B8A47
:100A1000038210BD10B500F001F810BD0CB5002028
:100A2000019000903348006840F4803031490860FC
:100A300000BF3048006800F4003000900198401C6E
:100A40000190009818B90198B0F5A06FF1D129482C
:100A5000006800F4003010B10120009001E0002097
:100A600000900098012843D12348006840F010000E
:100A7000214908600846006820F003000860084625
:100A8000006840F0020008601A4840681949486050
:100A90000846406848600846406840F48060486006
:100AA0000846406820F47C1048600846406840F4DE
:100AB000641048600846006840F08070086000BF1D
:100AC0000C48006800F000700028F9D00948406820
:100AD00020F00300074948600846406840F00200E3
:100AE000486000BF0348406800F00C000828F9D1B6
:100AF0000CBD0000001002400020024010B5134859
:100B0000006840F00100114908600846406810493B
:100B100008400E494860084600680E4908400B49E5
:100B200008600846006820F4802008600846406895
:100B300020F4FE0048604FF41F008860FFF76AFF52
:100B40004FF000600449086010BD00000010024032
:100B50000000FFF8FFFFF6FE08ED00E04FF08040D8
:100B6000008A20F001004FF08041088202480068AE
:100B7000401C0149086070471400002010B50E4861
:100B8000006820F47F600D49097840EA01100A49A5
:100B900008600B48006880470A49097808410A49FB
:100BA00009788840054908700848008820F001004D
:100BB0000649088010BD00000C0C014070000020A8
:100BC0006C00002072000020710000201004004022
:100BD0000448008820F001000249088001200249F1
:100BE00008707047100800400100002070B588B000
:100BF00006460C460E480068B8B100231A4601A903
:100C0000304600F081F90546681C10B9002008B094
:100C100070BD6560002060812081019860610020C6
:100C2000A0617220A0740120F1E70020EFE700002E
:100C30004800002001460B480068425C09480368F0
:100C4000481C185C02EB002206480368881C185CEC
:100C500002EB004203480368C81C185C02EB00600A
:100C6000704700004800002010B50B0E094A1468B8
:100C7000C21CA354C1F30743064A1468821CA35440
:100C8000C1F30723034A1468421CA354014B1B6899
:100C9000195410BD48000020002001490860704729
:100CA000140000202DE9F04395B080460E466948B7
:100CB000006800287ED04046FFF788FA401E00EB0F
:100CC000080400E0641E444505D020782F2802D097
:100CD00020780028F6D120782F2800D1641C2046E7
:100CE000FFF774FA18B9002015B0BDE8F083A4EB43
:100CF0000800402801DB0020F6E7A4EB080241468B
:100D00000AA8FFF782FA0020A4EB08010AAA5054AF
:100D10002022082113A8FFF7CCFA2022032112A8D1
:100D2000FFF7C7FA00250AE0605D10B1605D2E286C
:100D300000D106E0605D13A94855681CC5B2082DB6
:100D4000F2DB00BF2046FFF741FAC5B201E0681EA2
:100D5000C5B2002D02DD605D2E28F8D1605D2E2821
:100D600018D1681CC5B22046FFF730FA401B00F0CE
:100D7000FF09B9F1030F05DA61194A4612A8FFF716
:100D800044FA06E060190188ADF8481080788DF8C3
:100D90004A0000BF01AB02AA03A9404600F0B4F824
:100DA0000746781CC0B900231A4603A90AA800F018
:100DB000ABF800E04CE00746781C08B9002093E748
:100DC00001AA02A9384600F07BFD00F003FD0746AA
:100DD000781C48B9002087E7384600F0C9FD6FF05D
:100DE0007041384600F044FD029800F047F9194878
:100DF00000680199084413990160149941601548ED
:100E00000168019808300844BDF8481001809DF839
:100E10004A10817039B201981A3001F0CFFB3914B1
:100E20000198143001F0CAFB029800F011FB08B9D8
:100E3000002059E7376077600298F06001983082AF
:100E400000203081708170617720B07401204BE701
:100E5000002049E74800002002461078562815D1A6
:100E60005078452812D1907845280FD1D07858284D
:100E70000CD1D2E904301844884203D8D068B0F5C8
:100E8000804F01D9002070470120FCE70020FAE7DD
:100E900010B502460B46002119E00E48006940F0EB
:100EA00002000C4C2061501860612046006940F03F
:100EB0004000206100BF00F01DF80028FBD005486D
:100EC000006920F00200034C206101F58061994225
:100ED000E3D310BD0020024000BF011EA0F10100BD
:100EE000FBD1704710B5024801F024FC10BD000092
:100EF000300000200348C06800F0010080F00100CD
:100F000070470000002002402DE9FF4F8DB00546DC
:100F100088460026701E009054480068002875D04E
:100F200028782F2806D152480068009001265148A1
:100F3000D0F800A087E04FF0000909E0A85D05A9FE
:100F400001F80900701C06B209F101000FFA80F9DE
:100F5000A85D10B1A85D2F28F0D1002005A901F8E7
:100F6000090005A8FFF732F900286BD000270024FC
:100F70004DE00AEB070000F081F83C480068005D96
:100F8000E5282CD039480068005D052827D037486F
:100F90000068005D2E2822D034480068005DF0B162
:100FA0003248016804F10B00085C0F2817D02F4964
:100FB0000968081901A900F0F0FC05A901A800F0D2
:100FC00040FD60B104F11A0001F0EAFA834604F131
:100FD000140001F0E5FA0BEB0040009018E020341B
:100FE000B4F5007F13D300247F1C23480078874288
:100FF0000DD30027009800F021FC00906FF07041A5
:101000000098884203D1601E009001E020E0B0E724
:1010100000BFA85D2F2806D101E0701C06B2A85DB4
:101020002F28FAD00AE0A85D40B9B8F1000F05D02A
:1010300004F11C00FFF7FEFDC8F8000000208DF849
:10104000140000E003E0A85D00287FF474AF00BF47
:101050000F9818B10AEB07010F980160109808B1BA
:1010600010980460009811B0BDE8F08F480000208F
:10107000640000206800002054000020F0B5054600
:1010800000272148006800283CD02048006885429D
:1010900001D10120F0BD31E0002400BF01F088F84B
:1010A000FF28FBD12946112000F080F9064626B121
:1010B000052E01D100F070FD20E006E02046641C02
:1010C0001349884200D900E000BF01F071F8FE2802
:1010D000F4D1002405E001F06BF80B4909680855CC
:1010E000641CB4F5007FF6D301F062F801F060F8FB
:1010F00001F05EF8054805600120CBE738467F1C0B
:101100000828C9D30020C5E748000020500000206F
:10111000FEFF0F0010B500210220FFF7B5FB1D20D8
:10112000002817DB00F01F02012191400A4A430901
:1011300042F8231000BF00BF00BFBFF34F8F00BFB6
:1011400000BF00BF00BF00BF00BFBFF36F8F00BF75
:1011500000BF00BF00BF10BD80E100E000B591B04E
:1011600001210420FFF7A0FB01210820FFF79CFBD1
:1011700001211020FFF798FB01214802FFF794FBA3
:1011800001218802FFF790FB4FF44040FFF760FB1E
:1011900001217948FFF70EFB03208DF8420048201B
:1011A0008DF8430041F20110ADF8400010A97348DA
:1011B000FFF775FA4FF46040ADF8400010A9704891
:1011C000FFF76DFA03208DF8420010208DF84300E0
:1011D0004FF47F60ADF8400010A96A48FFF75FFA4E
:1011E00000200B9001208DF830008DF831004FF475
:1011F00060200D9000200E9002208DF83C000BA97D
:101200006148FFF769F902215F48FFF7CEF9012332
:101210001A4608215C48FFF787F9012302220921B9
:101220005948FFF781F94FF4E0415748FFF729F992
:1012300001215548FFF71AF95348FFF7C2F900BFDB
:101240005148FFF73EF90028FAD14F48FFF7C9F996
:1012500000BF4D48FFF71DF90028FAD101214A4887
:10126000FFF7F9F801214848FFF7B0F906A8FFF7A2
:101270002BFB01210846FFF707FB42F2107106988D
:10128000B0FBF1F0401E890608850A2088854007DA
:10129000808940F0010088810846008840F0010004
:1012A00008801C20002809DB00F01F02012191406A
:1012B0004209920002F1E022C2F8001100BF0121B0
:1012C0000803FFF7F1FA01218803FFF7DDFA182080
:1012D0008DF84300E020ADF8400010A92748FFF743
:1012E000DEF90020ADF804004FF48270ADF806007E
:1012F0000020ADF80800ADF80A00ADF80C004FF47E
:101300000070ADF80E000020ADF81000ADF812002E
:1013100001A91E48FFF760FB01211C48FFF73EFBB7
:1013200010208DF843000002ADF8400010A91548C8
:10133000FFF7B5F918208DF843004FF42040ADF8C1
:10134000400010A90F48FFF7AAF948208DF8430084
:101350004FF48040ADF8400010A90A48FFF79FF90C
:1013600001A90B48FFF738FB01210948FFF716FBDD
:10137000012011B000BD000000031800000801406A
:1013800000100140000C01400024014000300140E9
:1013900000380040024803494860034848607047ED
:1013A0002301674500200240AB89EFCD70B50246AE
:1013B0000B4600262548007820B9112A01D0182AAA
:1013C00000D15B0242F0400000F0F8FE180E00F081
:1013D000F5FEC3F3074000F0F1FEC3F3072000F071
:1013E000EDFED8B200F0EAFE082A01D1872100E024
:1013F0009521084600F0E2FE07E03046711C8EB2EF
:101400004FF6FE71884200DD04E000F0D1FE044694
:10141000FF28F2D000BFA4B93A2A12D100F0C8FECA
:10142000054605F0400018B101200849087002E0A7
:1014300000200649087000F0BBFE00F0B9FE00F085
:10144000B7FE00F0B5FE204670BD00004C00002045
:101450002DE9F041074630480068002859D04FF088
:1014600000080020044605460FE02B480068005D98
:1014700080EA2520C6B286EA2616280280EA0630CF
:1014800080EA4610704085B2641CB4F5007FECD34E
:1014900039E000BF00F08CFEFF28FBD13946182050
:1014A000FFF784FF10B100F077FB2CE000BF00F0E5
:1014B0007FFEFF28FBD1FE2000F080FE002405E027
:1014C00015490968085D00F079FE641CB4F5007FD9
:1014D000F6D3281200F072FEE8B200F06FFE00248E
:1014E00000BF00F065FE00F01F00052804D0204674
:1014F000641C0A498842F4D30848844200D302E0BD
:101500000120BDE8F081404608F101080828C0D359
:1015100000BF0020F5E7000048000020FEFF0F009C
:1015200000B589B04FF440410E480068FFF794FCC5
:10153000B0B101A90CA0FFF7B5FB10B9002009B0AC
:1015400000BD4FF440420748016801A800F0AAFD21
:1015500008B90020F3E701A800F08EFD0120EEE7B6
:101560000020ECE7380000202F64656275672E7656
:101570006578000070B50546284600F01DF906465E
:101580004FF4007107480068FEF79BFE002403E05B
:101590003019FFF75DFF641C034800788442F7DBD5
:1015A00070BD000048000020540000202DE9F047E5
:1015B0000746884614461E46A8F10108B8F10D0FEB
:1015C00002DA0020BDE8F08747480068002877D09D
:1015D0002068401C0028FAD082E0E588E0882030AE
:1015E000E080E088B0F5007F0EDB0020E080A0887E
:1015F000401CA080A0883D490978884204DB4FF058
:10160000FF3020600020DDE7206800F0D5F8A188D9
:1016100000EB010A5046FFF731FD33480068405D9A
:1016200048B131480068405D202804D02E48006849
:10163000405DFF2800D153E02B480068405DE5285D
:1016400000D14DE02848016805F10B00085C0F2827
:1016500045D0254909684819394600F09EF93846B1
:10166000FEF7B4FD00F0FF0905F11C00FFF7E2FAF8
:10167000306005F1140000F093FF308300203074D7
:1016800005F10B0000F084FF00F0020018B1307C7F
:1016900040F00100307405F10B0000F079FF00F01C
:1016A000040018B1307C40F003003074A9F103014C
:1016B000C8190FA100F0C5F918B1012070740CE031
:1016C0000FE005F10B0000F063FF00F0100010B117
:1016D0000220707401E000207074012072E700BFE6
:1016E0007BE700206EE70000480000205400002047
:1016F0005645580070B586B004460D461646B4F5FA
:101700007A7F03DB4AF64440844202DD002006B0C3
:1017100070BD082D08DAC5F1080040B221490870F3
:1017200000202149087007E0A5F1080040B21E49D9
:10173000087000201B4908701C48066001A8FFF7CC
:10174000C3F801210220FFF79FF8194890FBF4F03D
:10175000401E1849088016490198B0FBF1F0154960
:10176000091D088013481C38008840F00100114909
:101770001C3908800F482838008840F001000D49C6
:10178000283908801D20002809DB00F01F020121F4
:1017900091404209920002F1E022C2F8001100BF1C
:1017A0000120B4E772000020710000206C000020CE
:1017B00040420F00280400400146881E034A127868
:1017C000034B1B6800FB02307047000054000020F0
:1017D0006800002070B511480568002600241BE051
:1017E0002846FFF74BFC2046FFF724FA68B96FF054
:1017F00070412046FFF738FA2846FFF729FE10B956
:101800004FF0FF3070BD3046FCE7761C241DB4F568
:10181000007F01D36D1C0024E2E700005C00002083
:10182000002809DB00F01F020121914042099200CB
:1018300002F1E022C2F800117047000070B50446C2
:101840002046E11704EB5161CD11E11704EB516122
:10185000C911A4EBC1118E00044909684819FFF7AA
:101860000DFC3046FFF7E6F970BD00005C0000207B
:10187000F0B504460E462046E11704EB5161CD1148
:10188000E11704EB5161C911A4EBC1118F000749A5
:1018900009684819FFF7F2FB31463846FFF7E4F9CB
:1018A000024909684819FFF7D3FDF0BD5C0000202C
:1018B000024908680021014A1160704714000020A5
:1018C0002DE9F04781460E4617464846FFF774FF5C
:1018D00080460025002427E008EB0500FFF7CEFB3B
:1018E00015480068005D20B113480068005DE528D8
:1018F00000D11AE02034B4F5007F15DB6D1C002404
:101900000E48007885420FDB0025FFF763FF824613
:101910005046FFF72FFE51464846FFF7A9FF6FF0EC
:1019200070415046FFF7A4FFD6E700BF08EB050063
:1019300030603C60BDE8F087480000205400002083
:1019400010B514210348FEF7AEFDA0F5006000B20B
:1019500010BD00000024014010B518210348FEF717
:10196000A2FDA0F5006000B210BD000000240140FF
:1019700030B505460EE02846FFF760FF044600211B
:101980002846FFF775FF6FF07040844200D004B91D
:1019900001E02546EFE700BF30BD10B50246002349
:1019A00002E0D45CCC545B1C082BFADB082005E079
:1019B000431ED8B20B5C202B00D001E00028F7DCDE
:1019C00000BF431CD8B2137A202B1AD02E230B54FD
:1019D000431CD8B2002306E003F10804145D0C5444
:1019E000441CE0B25B1C032BF6DB05E0431ED8B2BF
:1019F0000B5C202B00D001E00028F7DC00BF431C6B
:101A0000D8B200230B5410BD024605E0107808B987
:101A100001207047521C491C10780B789842F5D071
:101A20000020F6E770B504460D462946204600F032
:101A30005DFC20B100F0B0FB08B1012070BD0020BA
:101A4000FCE710B502460B4605E0107808B9012006
:101A500010BD521C5B1C107800F0CAFB04461878BD
:101A600000F0C6FB8442F0D00020F1E72DE9F04100
:101A700004460D46271E00DA6442002600BF0A20F5
:101A800094FBF0F100FB11403030C2B23046761CBE
:101A90002A540A2094FBF0F0041EF0DC002F03DA35
:101AA0002D223046761C2A540020A855284600F0E6
:101AB0005FFBBDE8F08170B505460C462046FEF799
:101AC00085FB02280CD92078632809D160782E285C
:101AD00006D1A11C2846FFF797FF08B1012070BD71
:101AE0000020FCE72DE9F04704460D4690462848C3
:101AF000006800284AD0A07C722847D16068FFF7B0
:101B00005BFE81462E46A769D4F814A035E0574500
:101B100000D337E07F1C218901EB0900FFF7AEFA03
:101B200010B90020BDE8F087608919490968085C90
:101B30003070761C6089401C60816089B0F5007F40
:101B40001BDB002060812089401C208120891149F5
:101B50000978884211DB002020816068FFF76EFE63
:101B600060606FF070416068884202DB0020606155
:101B700008E06068FFF720FE8146B8F10000A8F198
:101B80000108C4D100BFA761701BCBE70020C9E7E3
:101B90004800002054000020F0B502270024002552
:101BA00002E000F005FB6D1C282DFAD34FF08050A9
:101BB0002749086005E02046641C402801D901201F
:101BC000F0BD00210846FFF7F1FB0128F3D100F03A
:101BD000EFFA00F0EDFA002405E02046641CFE2830
:101BE00001D9012706E04FF4D5710820FFF7DEFB8D
:101BF0000128F2D100BF002400BF00213720FFF7E9
:101C0000D5FB06464FF080412920FFF7CFFB064663
:101C1000641C4FF6FE70844201D90120D0E7002EEB
:101C2000EBD1002400200B490870022F0ED106E0F2
:101C30002046641C40F6FE71884200D905E0002170
:101C40003A20FFF7B3FB0028F2D100BF0020B7E72E
:101C5000100C01404C00002010B50446214674A031
:101C6000FFF729FF08B1764810BD214675A0FFF7A0
:101C700022FF08B17748F7E7214677A0FFF71BFF5F
:101C800008B17A48F0E7214679A0FFF714FF08B1C0
:101C90007B48E9E721467BA0FFF70DFF08B17F48AD
:101CA000E2E721467EA0FFF706FF08B18248DBE7A6
:101CB000214682A0FFF7FFFE08B18648D4E72146FF
:101CC00085A0FFF7F8FE08B18748CDE7214687A039
:101CD000FFF7F1FE08B18748C6E7214686A0FFF767
:101CE000EAFE08B18648BFE7214686A0FFF7E3FE7B
:101CF00008B18748B8E7214686A0FFF7DCFE08B1A7
:101D00008748B1E7214687A0FFF7D5FE08B188488C
:101D1000AAE7214687A0FFF7CEFE08B18848A3E7CF
:101D2000214688A0FFF7C7FE08B188489CE72146F6
:101D300087A0FFF7C0FE08B1884895E7214688A034
:101D4000FFF7B9FE08B18A488EE7214689A0FFF760
:101D5000B2FE08B18A4887E721468AA0FFF7ABFEAA
:101D600008B18B4880E721468AA0FFF7A4FE08B19E
:101D70008A4879E721468AA0FFF79DFE08B18A4884
:101D800072E7214689A0FFF796FE08B189486BE704
:101D9000214689A0FFF78FFE08B18C4864E72146F1
:101DA0008BA0FFF788FE08B18D485DE721468DA026
:101DB000FFF781FE08B18E4856E721468DA0FFF758
:101DC0007AFE08B190484FE7214690A0FFF773FED6
:101DD00008B1914848E7214690A0FFF76CFE08B192
:101DE000904841E7214690A0FFF765FE08B1904872
:101DF0003AE721468FA0FFF75EFE08B18F4833E730
:101E000021468FA0FFF757FE08B18F482CE72146E7
:101E10008EA0FFF750FE08B18E4825E721468EA020
:101E2000FFF749FE08B18E481EE700201CE70000BE
:101E3000645365744C696E65436C656172000000A3
:101E4000792D00086453657446696C6C436F6C6F40
:101E5000720000005D2D0008645365745370726950
:101E600074654D656D6F727900000000892E000861
:101E700064446973706C61795370726974650000B1
:101E8000852D000864446973706C617953707269C0
:101E900074654269744D61736B0000004530000841
:101EA00064446973706C61795370726974654279C6
:101EB00074654D61736B00007D3100086444697383
:101EC000706C61795370726974654D617472697870
:101ED00000000000B92E000864446973706C6179D9
:101EE0005465787400000000ED2B00086453796E8F
:101EF00063000000E50E000864536574465053000B
:101F0000652000086453657450616C6574746500E5
:101F1000512D0008694765745374617465000000B1
:101F2000ED2C00086947657458417869730000001A
:101F30001D2D0008694765745941786973000000D8
:101F4000372D00086673496E697400000922000885
:101F50006673526561644469720000005925000887
:101F60006673526561644E65787446696C650000FD
:101F7000AD15000866735265616446696C650000C2
:101F8000ED0B00086673577269746546696C6500ED
:101F9000A50C00086673526561640000E51A00082C
:101FA0006673577269746500A52000086673436CF8
:101FB0006F73650079200008736E64456E61626C12
:101FC00065536F756E644D6F6E6F0000F5160008F7
:101FD000736E6444697361626C65536F756E6400FF
:101FE000151100087447657454696D65720000002E
:101FF000E12200087447657454696D65725769740D
:1020000068436C6561720000B118000874436C6528
:10201000617254696D657200990C000868436D70B7
:1020200000000000091A00086849746F6100000090
:102030006D1A00086D656D73657400009D020008DF
:102040006D656D6370790000950200087374726CA1
:10205000656E0000CD0100087352756E000000002F
:10206000251A000810B504462146024800F04FFD2D
:1020700010BD00003000002010B50446A07C772879
:102080000CD1E068FEF7FAFF40B1228A02F11C0091
:102090006169FEF7E9FDE068FFF7DAF96520A074F1
:1020A000012010BD2DE9F04304460D469146264817
:1020B0000068002846D0A07C772843D12E4660686F
:1020C000FFF77AFB074631E02189C819FEF7D6FFF2
:1020D000307861891C4A12685054761C6089401C13
:1020E00060816069401C60616089B0F5007F1DDB24
:1020F0002189C819FFF7ACF9002060812089401CB4
:10210000208120891149097888420FDB0020208135
:10211000FFF760FB804641466068FFF7A9FBC4F803
:1021200004804046FFF748FB074600BFB9F10000B6
:10213000A9F10109C8D12189C819FFF789F9701BD4
:10214000BDE8F0830020FBE7480000205400002099
:1021500038B5044600200A231A4604210090204680
:1021600000F044FD014800F0E5FA38BD30000020E1
:102170002DE9F041044600252046FEF727F8461ECB
:1021800005E0675DA05D6055A7556D1C761EB542E4
:10219000F7D3BDE8F081000070B504480068441C26
:1021A0002646B0470546284670BD00004000002086
:1021B00000B5FF2000F002F800BD0000014600BF9E
:1021C0000A48008800F002000028F9D00748001DE6
:1021D000018000BF0548008800F001000028F9D008
:1021E0000248001D0088C0B2704700000838004057
:1021F0000146612904DB7A2902DCA1F1200000E01C
:102200000846C0B27047000030B50546FFF7C4FC71
:102210002A4908700846007800284DD128480560F2
:102220000020FEF72BFF08B9002030BD4FF4FF70EF
:1022300000F0B6F94AF65521884201D00020F4E7B3
:102240004FF4E37000F0ACF904462046FEF716FFA9
:1022500008B90020E9E70D2000F09AF91949087043
:102260000C2000F095F9184908702420FEF7E2FCD4
:10227000164908600E2000F093F9204414490860C4
:1022800008460068114909680F4A127801FB0200EC
:10229000104908602C20FEF7CDFC0F490860084665
:1022A0000068801E074909780A4A126800FB01206D
:1022B0000A4908600120B8E70020B6E74D00002079
:1022C0004800002054000020550000205800002045
:1022D0005C000020600000206400002068000020F6
:1022E0000148006870470000140000202DE9F34FFA
:1022F0009BB00D460020029013A91B98FEF776FCB8
:10230000002870D01C220CA913A8FFF7EBFB4FF498
:1023100040410CA8FEF7A0FD0028F2D0FFF73AF8E4
:102320004FF4404173480068FEF7B2FD71491098C0
:10233000096800EB0109DAE008220AA913A8FFF7EF
:10234000D1FB9DF8280000287ED003287DD00428EA
:102350007CD006287BD10020009098E0102206A9AE
:1023600013A8FFF7BFFBDDE907010144099801EB62
:102370000010059009980490294613A8059AFFF7C4
:10238000B1FB002675E0079828440899084400EB43
:102390000614A088012806D002285BD003285ED04E
:1023A000042862D100E000BFE079012803D00020BA
:1023B0001DB0BDE8F08FA07901283FD1A088012889
:1023C00005D14C49E06809680844471C0CE00798AF
:1023D0002844A168084401900198FFF73DFC074696
:1023E00017B90020E4E783E02068285810B9206876
:1023F0002F5023E03F49069809680844216800EB04
:10240000010AA7EB0A00001FC0F316084FEA183BA9
:10241000C8F34A0003902068285A00F478405844D2
:1024200000B2216868522068801C285A00F4784164
:102430000398084401B22068801C2952A07940B951
:10244000E0684844216803E03FE033E025E04BE0EA
:1024500068500CE0E06848442168685007E026496D
:10246000E06808442168685001E00020A0E700BF50
:10247000761C0498864286D31E4BDDE906021B6853
:10248000C118284600F03CF80098401C00900B99B9
:10249000009881423FF662AF28E00B9848B1294688
:1024A00013A80B9AFFF71EFB494628460B9A00F02B
:1024B00027F81BE00B9838B10B9880B202900E49B8
:1024C00013A80B9AFFF70EFB10E0029AC2F58041A9
:1024D000094B9818FDF7F5FE06491298096808445B
:1024E00006490860012063E7002061E700BF23E799
:1024F00000205DE7380000208C050020400000200F
:1025000030B5044615461348006940F00100114AF1
:102510001061002315E000BFFEF7ECFC0028FBD0A3
:10252000E2580A8000BFFEF7E5FC0028FBD0891CBA
:10253000120C0A8000BFFEF7DDFC0028FBD0891CCE
:102540001B1DAB42E7D30348006920F00100014A9C
:10255000106130BD0020024070B506460C460B48A5
:10256000006880B100231A4619463046FEF7CCFCBD
:102570000546681C08B9002070BD25600020A080B9
:10258000E0800120F8E70020F6E700004800002086
:10259000014602480068405C704700004800002087
:1025A000014605480068425C03480368481C185C03
:1025B00002EB002080B270474800002010B5C1F344
:1025C0000723044A1468421CA354024B1B68195485
:1025D00010BD00004800002070B505460C460122E1
:1025E00004210648FEF72EF900BF02210448FEF739
:1025F000EAF90028F9D00248848170BD0008014042
:102600000030014070B505460C46012204210C48FB
:10261000FEF718F900BF02210A48FEF7D4F9002896
:10262000F9D020120749888100BF02210548FEF732
:10263000CAF90028F9D0E0B20249888170BD0000D3
:10264000000801400030014070B505460E464FF4C9
:10265000A0720021284600F049FAF0220021284605
:1026600000F0B2FA2C21284600F08EFA0122042153
:102670001448FEF7E7F8002210211248FEF7E2F8AE
:10268000002005E00021104A22F81010411C88B2F9
:10269000B0F5A07FF6DB002411E000200B490870A4
:1026A0000949284600F03CFA01210948FDF7C4FF1A
:1026B00000BF064800780028FBD0601C84B2F02CD4
:1026C000EBDB70BD00080140880000200000002006
:1026D0003000024030B585B005460C466846FEF72E
:1026E000F3F801210420FEF7CFF842F210710098B0
:1026F000B0FBF1F0401E0E49088042F2107090FBD2
:10270000F4F0091D08800A481C38008840F00100D8
:1027100007491C39088006482838008840F0010025
:102720000349283908801E20FFF77AF805B030BD2C
:102730002808004070B505462C21284600F024FAF0
:10274000012204211D48FEF77DF8002210211B48BC
:10275000FEF778F81A4E3146002000F0B3FD012450
:102760001CE00020174908703146284600F0D8F9CF
:1027700001211548FDF760FF1148864201D1134839
:1027800000E00F480646314620B200F09BFD00BF36
:102790000C4800780028FBD0601C84B2F02CE0DDEF
:1027A00000F08AFD00BFA88818B109480078002809
:1027B000F9D000200649087070BD000000080140F3
:1027C0008800002000000020300002400A030020A2
:1027D0000100002038B504460020C2490870A080DE
:1027E00001210846FEF740F803208DF80200102072
:1027F0008DF803001E20ADF800006946BA48FDF7C9
:102800004EFF01221021B848FEF71CF800220821D3
:10281000B548FEF717F801220821B348FEF712F871
:1028200047F23050FEF758FB0121204600F0ACF98A
:1028300047F23050FEF750FBCB21204600F0A4F9C0
:1028400039212046FFF7C8FE2C212046FFF7C4FEA1
:1028500000212046FFF7C0FE34212046FFF7BCFED2
:1028600002212046FFF7B8FECF21204600F08CF968
:1028700000212046FFF7B0FEC1212046FFF7ACFE45
:1028800030212046FFF7A8FEE821204600F07CF921
:1028900085212046FFF7A0FE00212046FFF79CFE81
:1028A00078212046FFF798FEEA21204600F06CF9D7
:1028B00000212046FFF790FE00212046FFF78CFE06
:1028C000ED21204600F060F964212046FFF784FEE8
:1028D00003212046FFF780FE12212046FFF77CFEF1
:1028E00081212046FFF778FEF721204600F04CF9C1
:1028F00020212046FFF770FEC021204600F044F959
:1029000025212046FFF768FEC121204600F03CF952
:1029100010212046FFF760FEC521204600F034F963
:102920003E212046FFF758FE28212046FFF754FE9F
:10293000C721204600F028F986212046FFF74CFEEB
:102940003621204600F020F948212046FFF744FEBA
:102950003A21204600F018F955212046FFF73CFEA9
:10296000B121204600F010F900212046FFF734FE87
:1029700018212046FFF730FEB621204600F004F96A
:1029800008212046FFF728FE82212046FFF724FE7B
:1029900027212046FFF720FE1121204600F0F4F801
:1029A0002921204600F0F0F8F221204600F0ECF852
:1029B00000212046FFF710FE2621204600F0E4F813
:1029C00001212046FFF708FEE021204600F0DCF858
:1029D0000F212046FFF700FE31212046FFF7FCFDC6
:1029E0002B212046FFF7F8FD0C212046FFF7F4FDD0
:1029F0000E212046FFF7F0FD08212046FFF7ECFDF1
:102A00004E212046FFF7E8FDF1212046FFF7E4FDC7
:102A100037212046FFF7E0FD07212046FFF7DCFDC8
:102A200010212046FFF7D8FD03212046FFF7D4FDF3
:102A30000E212046FFF7D0FD09212046FFF7CCFDEF
:102A400000212046FFF7C8FDE121204600F09CF858
:102A500000212046FFF7C0FD0E212046FFF7BCFDF8
:102A600014212046FFF7B8FD03212046FFF7B4FDEF
:102A700011212046FFF7B0FD07212046FFF7ACFDEE
:102A800031212046FFF7A8FDC1212046FFF7A4FD14
:102A900048212046FFF7A0FD08212046FFF79CFDB6
:102AA0000F212046FFF798FD0C212046FFF794FDEB
:102AB00031212046FFF790FD36212046FFF78CFD9F
:102AC0000F212046FFF788FD3621204600F05CF8F4
:102AD000E8212046FFF780FD00212046FFF7B4FDE6
:102AE00038BD0000000000200008014070B5054618
:102AF0000E4614462A21284600F046F8314628465C
:102B0000FFF780FD21462846FFF77CFD70BD70B5BC
:102B100004460D46A58029462046FFF7DBFD70BD23
:102B200030B58BB005460C4601210846FDF79CFEEA
:102B3000134800900194102002904FF420700390ED
:102B400000200A90079080200590002004900890B3
:102B500006904FF48050099069460A48FDF781FDC0
:102B60000122022106480C38FDF724FF0122022130
:102B70000448FDF76DFD0D20FEF752FE0BB030BD91
:102B80000C3001403000024070B505460C46012271
:102B900010210B48FDF756FE002204210848FDF7DE
:102BA00051FE002210210648FDF74CFE00BF022115
:102BB0000448FDF708FF0028F9D00248848170BD61
:102BC000000801400030014070B505460E4614462D
:102BD0002B212846FFF7D8FF31462846FFF712FD84
:102BE00021462846FFF70EFD70BD00002DE9FF4F7E
:102BF00085B0074615469846DDF848903846FDF7FB
:102C0000E5FA8346002659E0BC5D4FF0000A612CCE
:102C100004DB7A2C02DCA4F12000C4B2412C08DBD6
:102C20005A2C06DCA4F1410000EB4000264901EBE0
:102C3000800A302C08DB392C06DCA4F1160000EBEE
:102C40004000214901EB800A2D2C01D1DFF87CA046
:102C50002B2C01D1DFF878A0272C01D1DFF874A04C
:102C60002E2C01D1DFF870A02C2C01D1DFF86CA044
:102C70005F2C01D1DFF868A07E2C01D1DFF864A0C1
:102C80002F2C01D1DFF860A0BAF1000F0DD0002089
:102C90000C2101220FFA88F3CDE90209CDE90021C8
:102CA0002AB25046069900F0CDF9B9F1000F01D0D3
:102CB000102000E00820284485B2761C5E45A3DB86
:102CC00009B0BDE8F08F0000343A0008E43B00088A
:102CD000F03B0008FC3B0008083C0008143C0008DE
:102CE000203C00082C3C0008383C00080146002924
:102CF0000EDB05290CDC074850F821008068064AE5
:102D000032F81120104008B9012070470020FCE77C
:102D10000020FAE718000020283A000870B50024C7
:102D2000002503E0FEF70CFE04446D1C082DF9DBC2
:102D3000E01000B270BD70B50024002503E0FEF77E
:102D40000BFE04446D1C082DF9DBE01000B270BDD1
:102D5000014908607047000010000020012803D1DD
:102D6000FF21044A117003E00021024A117000BFE4
:102D700000BF70470900002001490870704700003B
:102D80000C0000202DE9F041DDE90656089C3B4F80
:102D90003F78DFF8ECC0BCF800C067456CDA394F0B
:102DA0003F68DFF8D8C09CF800C007EB0C1738600C
:102DB0000127DFF8D0C0DCF800C0DFF8C08098F849
:102DC00000800CEB081C8CF80C702E4F3F68DFF86D
:102DD000ACC09CF800C007EB0C17B980294F3F68C6
:102DE000DFF898C09CF800C007EB0C17FA800CB114
:102DF0005F0000E01F46DFF88CC0DCF800C0DFF8A1
:102E00007C8098F800800CEB081CACF808700CB1C2
:102E10006F0000E02F461FFA87FC1A4F3F68DFF86B
:102E20005C8098F8008007EB0817A7F80AC0154FD8
:102E30003F68DFF848C09CF800C007EB0C17BC7374
:102E4000104F3F68DFF834C09CF800C007EB0C1748
:102E5000FE734FF0000C0B4F3F68DFF8208098F8AE
:102E6000008007EB081787F80DC0044F3F787F1CE0
:102E7000DFF808C08CF80070BDE8F0810800002081
:102E80000A00002004000020C1F30F12054B1A8035
:102E9000054A10600022054B1A70054A054B1A605E
:102EA000704700000A0000200400002008000020F5
:102EB000143A0008100000202DE9F0470746DDE92C
:102EC000096C089D0B9C0020DFF86C8198F800804D
:102ED000DFF86891B9F80090C8457CDA082914D069
:102EE00006DC01290BD002290BD0042915D10AE0F8
:102EF00010290CD020290CD040290ED10BE0002045
:102F00000DE001200BE0022009E0032007E004208F
:102F100005E0052003E0062001E0BDE8F08700BFE2
:102F2000DFF81C81D8F80080DFF80C9199F8009048
:102F300008EB0918C8F800704FF00408DFF800919A
:102F4000D9F80090DFF8F0A09AF800A009EB0A1970
:102F500089F80C80DFF8E880D8F80080DFF8D89096
:102F600099F8009008EB0918A8F80420DFF8D08041
:102F7000D8F80080DFF8C09099F8009008EB0918A5
:102F8000A8F8063024B105FA00F84FEA480801E035
:102F900005FA00F8DFF8A890D9F80090DFF898A0BB
:102FA0009AF800A009EB0A19A9F8088024B106FADA
:102FB00000F84FEA480801E006FA00F8DFF88090D0
:102FC000D9F80090DFF870A09AF800A009EB0A1970
:102FD000A9F80A8000E02DE0DFF86480D8F80080CE
:102FE000DFF8549099F8009008EB091888F80E4023
:102FF000DFF84C80D8F80080DFF83C9099F800901A
:1030000008EB091888F80FC0DFF83480D8F8008082
:10301000DFF8249099F8009008EB091888F80D0063
:10302000DFF8148098F8008008F10108DFF80890B4
:1030300089F8008000BF70E7080000200A00002027
:10304000040000202DE9F04307ADE0CD0A9CDFF835
:1030500020C19CF800C0DFF81C81B8F80080C4458E
:103060007DDADFF814C1DCF800C0DFF8048198F8DD
:1030700000800CEB081CCCF800004FF0020CDFF8CD
:10308000F880D8F80080DFF8E89099F8009008EB15
:10309000091888F80CC0DFF8E0C0DCF800C0DFF8E1
:1030A000D08098F800800CEB081CACF80420DFF806
:1030B000C8C0DCF800C0DFF8B88098F800800CEBDE
:1030C000081CACF8063014B14FEA051C01E04FEAC9
:1030D000C50CDFF8A480D8F80080DFF8949099F848
:1030E000009008EB0918A8F808C014B14FEA460C84
:1030F00000E0B446DFF88080D8F80080DFF87090F8
:1031000099F8009008EB0918A8F80AC0DFF868C021
:10311000DCF800C0DFF8588098F800800CEB081C41
:103120008CF80D10DFF850C0DCF800C0DFF84080EC
:1031300098F800800CEB081C8CF80E40DFF838C0C3
:10314000DCF800C0DFF8288098F800800CEB081C41
:103150008CF80F70DFF818C09CF800C000E005E0A4
:103160000CF1010CDFF8088088F800C0BDE8F0839E
:10317000080000200A000020040000202DE9F04390
:1031800007ADE0CD0A9CDFF824C19CF800C0DFF851
:103190002081B8F80080C4457EDADFF818C1DCF879
:1031A00000C0DFF8088198F800800CEB081CCCF810
:1031B00000004FF0030CDFF8FC80D8F80080DFF847
:1031C000EC9099F8009008EB091888F80CC0DFF82B
:1031D000E4C0DCF800C0DFF8D48098F800800CEB85
:1031E000081CACF80420DFF8CCC0DCF800C0DFF825
:1031F000BC8098F800800CEB081CACF8063014B1C9
:103200004FEA450C00E0AC46DFF8A880D8F8008013
:10321000DFF8989099F8009008EB0918A8F808C012
:1032200014B14FEA460C00E0B4461FFA8CF8DFF800
:1032300084C0DCF800C0DFF8749099F800900CEBC3
:10324000091CACF80A80DFF86CC0DCF800C0DFF8BD
:103250005C8098F800800CEB081C8CF80E40DFF8BE
:1032600054C0DCF800C0DFF8448098F800800CEB14
:10327000081C8CF80F70DFF83CC0DCF800C0DFF8E9
:103280002C8098F800800CEB081C8CF80D10DFF8EF
:103290001CC09CF800C000E005E00CF1010CDFF858
:1032A0000C8088F800C0BDE8F08300000800002012
:1032B0000A00002004000020002001490870704727
:1032C000080000202DE9F34F8DB08946F9480078B9
:1032D00030B1F94802784FF420714846FCF7E9FF15
:1032E0000020A3E2F549096801EB0015B5F90620B5
:1032F0000D998A427CDCB5F906106A890A440D9959
:103300008A4275DDA97B09B1012100E0002101910C
:10331000E97B01F0010191B1019941B16A89B5F9E7
:1033200006300D99C91A511A491E491013E06A89CD
:10333000B5F906300D99C91A511A491E0BE00199C9
:1033400029B1B5F906200D99891A491003E0B5F99C
:1033500006200D99891A0891E97B01F0020111B14B
:103360004FF0FF3100E00121C9B20491B5F90440EA
:10337000297B012906D0022970D003296FD00429A6
:103380006ED19FE1019911B12989491000E0298985
:10339000884629680291E97B01F0020131B1089960
:1033A00001FB0881491E029A114403E0089A029920
:1033B00002FB08110F460199A1B3002C19DB2989E2
:1033C000C1F5A071A14214DD00260EE0397841B1AB
:1033D0003978BB4A126832F8111001EB014149F803
:1033E0001410A41C04990F44761C4645EEDB4CE0F7
:1033F0001BE2002613E0397869B1002C0BDBB4F531
:10340000A07F08DA3978AE4A126832F8111001EB61
:10341000014149F81410A41C04990F44761C464538
:10342000E9DB32E0FFE7002C16DB2989C1F5A0714A
:10343000A14211DD00260CE0397831B13978A04A7B
:10344000126832F8111029F81410641C04990F4402
:10345000761C4645F0DB18E0002614E016E0B9E0E3
:10346000E2E1397859B1002C09DBB4F5A07F06DA26
:103470003978934A126832F8111029F81410641C34
:1034800004990F44761C4645EBDBCDE1697B8C4A01
:10349000126832F811B0296802910199A9B32989FB
:1034A0004FEA2118089901FB08F10691002C22DB54
:1034B0002989C1F5A071A1421DDD002618E00699F9
:1034C0008A190299895C03914FF0000A0CE080216F
:1034D00041FA0AF1039A114019B10BEB0B4149F87B
:1034E0001410A41C0AF1010ABAF1080FEFDB761CD4
:1034F0004645E4DB6DE000261EE006998A19029934
:10350000895C03914FF0000A12E018E0002C0CDBFC
:10351000B4F5A07F09DA802141FA0AF1039A11403B
:1035200019B10BEB0B4149F81410A41C0AF1010A64
:10353000BAF1080FEADB761C4645DEDB49E0298953
:103540004FEAE108089901FB08F10691002C20DB05
:103550002989C1F5A071A1421BDD002616E006995C
:103560008A190299895C03914FF0000A0AE08021D0
:1035700041FA0AF1039A114009B129F814B0641C08
:103580000AF1010ABAF1080FF1DB761C4645E6DBC9
:103590001FE000261BE006998A190299895C0391B5
:1035A0004FF0000A0FE0002C0ADBB4F5A07F07DA29
:1035B000802141FA0AF1039A114009B129F814B0A7
:1035C000641C0AF1010ABAF1080FECDB761C4645CF
:1035D000E1DB29E1019911B12989491000E029892C
:1035E000884629680291E97B01F0020131B108990E
:1035F00001FB0881491E029A114403E0029A0899CE
:1036000001FB08210F46697B2D4A126832F811B080
:10361000019949B3002C13DB2989C1F5A071A1429E
:103620000EDD002609E0397819B10BEB0B4149F8A2
:103630001410A41C04990F44761C4645F3DB38E0B3
:1036400000260EE0397841B1002C06DBB4F5A07FEE
:1036500003DA0BEB0B4149F81410A41C04990F4436
:10366000761C4645EEDB24E0002C11DB2989C1F5F0
:10367000A071A1420CDD002607E0397809B129F8D4
:1036800014B0641C04990F44761C4645F5DB10E029
:1036900000260CE0397831B1002C04DBB4F5A07FB2
:1036A00001DA29F814B0641C04990F44761C4645CD
:1036B000F0DBB9E00C00002009000020040000202D
:1036C00010000020019921B129896A7B114149101C
:1036D00002E029896A7B11410A916A7B012101FA82
:1036E00002F8089991FBF8F10991089991FBF8F219
:1036F00008FB12110891089901FB08F10691DDE918
:103700000912514305914FEA48010B9129680C9128
:103710000199E9B30021079140E00C990CC9059982
:10372000595C52F8212006995718002C17DB0B9989
:10373000C1F5A071A14212DD00260DE0397841B13A
:1037400039783E4A126832F811B00BEB0B4149F858
:1037500014107F1CA41C761C4645EFDB16E00026E7
:1037600012E0397869B1002C0BDBB4F5A07F08DAE0
:103770003978324A126832F811B00BEB0B4149F834
:1037800014107F1CA41C761C4645EADB059900E05A
:1037900009E0491C05910799491C07910A9A079964
:1037A0009142BADB3FE00021079138E02A68059991
:1037B00052F8212006995718002C15DB0B99C1F5FA
:1037C000A071A14210DD00260BE0397831B13978C3
:1037D0001A4A126832F8111029F814107F1C641C60
:1037E000761C4645F1DB14E0002610E0397859B12B
:1037F000002C09DBB4F5A07F06DA39780F4A12688D
:1038000032F8111029F814107F1C641C761C4645F0
:10381000ECDB0599491C05910799491C07910A9A07
:1038200007999142C2DB00BF00BF401C04490978E0
:103830008842FFF657AD0FB0BDE8F08F10000020B2
:103840000800002010B5084801680020086000BF8B
:1038500005E02023044A1468021DA354401CB0F55F
:10386000487FF6DB10BD00004400002010B5044680
:1038700002480460FFF7E6FF10BD0000440000208E
:1038800002480349034901607047000030000020EE
:10389000683C00084C3C000808B5FDF75FFC0028B8
:1038A0005ED03048FEF796FF2F48FFF7DFFF4FF45A
:1038B00080512E48FFF7E8FA2D48FEF7A5FC054693
:1038C000002D49D02BA0FEF743FCA5B1FDF728FE43
:1038D00088B12CA0FEF73CFC304931A0FEF706FD74
:1038E00028B124A0FEF734FCFEF756FC37E02FA0E9
:1038F000FEF72EFC33E03DB1284930A0FEF7F6FC80
:1039000010B1FEF749FC2AE01E211648FFF7FFF828
:10391000002401261FE0A01904B2A02C01DD4FF005
:10392000FF36002C00DA01260020009004F10A0086
:1039300083B20A22042125A0FFF758F90020009045
:1039400004F11A0083B20A22042128A0FFF74EF9DD
:103950000448FEF7EFFEDEE72BA0FEF7F9FB00BF01
:1039600000BFFEE7300000208C0500208C0D0020F9
:103970008C2500205374617274696E67202E2E2E80
:10398000000000004C6F6164696E672070726F67A1
:1039900072616D6D202E2E2E000000008C290020FB
:1039A0002F64656275672E766578000044656275E0
:1039B00067206661696C6564000000002F617574A2
:1039C0006F72756E2E766578000000004E6F207065
:1039D000726F6772616D2C20706C656173652C204D
:1039E00072656164206D616E75616C005468616E12
:1039F0006B20796F7520666F72207573696E672012
:103A000056697265796500004E6F205344206361EA
:103A10007264000000000000FFFFE0071F0000F8D4
:103A20008C51FFE05E9793900001001000400080F1
:103A300000200100001E0A0A1212223E424200002B
:103A4000007C4242427C4242427C0000003C4240B8
:103A500040404040423C0000007C424242424242E0
:103A6000427C0000003E4040407C4040407E0000E0
:103A7000007E4040407C404040400000003E4040CE
:103A800040404642423E000000424242427E4242A4
:103A900042420000007C101010101010107C00003A
:103AA000007E020202020202423C00000042444840
:103AB0005060504844420000004040404040404078
:103AC000407E0000004266665A5A4242424200006E
:103AD0000042626252524A4A46460000003C42425C
:103AE00042424242423C0000007C4242427C404012
:103AF00040400000003C4242424242524A3C0200E6
:103B0000007C4242427C605048460000003C4240FB
:103B1000403C0202423C0000007C101010101010CB
:103B2000101000000042424242424242423C000029
:103B30000044444428282810101000000044445435
:103B40005454545454280000004444282810282871
:103B500044440000004444282810101010100000B5
:103B6000007E020204081020407E0000000038445D
:103B70004464544C443800000000103050101010C1
:103B8000107800000000384404040810207C000075
:103B900000003844040438044438000000000818C9
:103BA00028487C08083C000000007C404040780425
:103BB0000478000000001C20404078444438000095
:103BC00000007C4408081010202000000000384449
:103BD000444438444438000000003844443C040461
:103BE000443800000000000000007C0000000000DD
:103BF0000000000010107C10100000000060602029
:103C000000000000000000000000000000000000B4
:103C10006060000000000000000000006060200004
:103C200000000000000000007E7E00000000000098
:103C300000207A5E04000000040408081010202010
:103C400040400000000000000000000000000000F4
:103C5000000000000F2B0008D527000835270008BA
:103C60000000000000000000000000000000000054
:103C7000000000000000000000000000A03C000860
:103C8000000000208800000028010008283D0008EE
:103C900088000020684B000044010008E5FBFFFF9E
:103CA0000000000000000000000000000100000013
:103CB0000000000000000000000801400008014072
:103CC00000100140001001400010014000080140B8
:103CD00000000000000000000040000800A00008F4
:103CE00000000000000000000000000000000000D4
:103CF000FFFFFFFF000000000000000000000000C8
:103D000000000000000000000000000000000000B3
:103D10000000000000000001020304010203040689
:083D200007080902040608006F
:040000050800018D61
:00000001FF
