:020000040800F2
:10000000684F002089010008910100089301000851
:100010009501000897010008990100080000000000
:100020000000000000000000000000009B0100082C
:100030009D010008000000009F010008A1010008C8
:10004000A3010008A3010008A3010008A301000800
:10005000A3010008A3010008A3010008A3010008F0
:10006000A3010008A3010008A3010008A3010008E0
:10007000A3010008C1050008A3010008A3010008AE
:10008000A3010008A3010008A3010008A3010008C0
:10009000A3010008A3010008A3010008A3010008B0
:1000A000A3010008A3010008A3010008A3010008A0
:1000B000A10A0008C10A0008150B0008A3010008E6
:1000C000A3010008A3010008A3010008A301000880
:1000D000A3010008A3010008A3010008A301000870
:1000E000A3010008A3010008A301000800F002F822
:1000F00000F03AF80AA090E8000C82448344AAF188
:100100000107DA4501D100F02FF8AFF2090EBAE885
:100110000F0013F0010F18BFFB1A43F0010318473B
:100120006C4500008C450000103A24BF78C878C1A7
:10013000FAD8520724BF30C830C144BF04680C60ED
:10014000704700000023002400250026103A28BF35
:1001500078C1FBD8520728BF30C148BF0B60704739
:100160001FB51FBD10B510BD00F025F91146FFF7F2
:10017000F7FF04F0BDF800F043F903B4FFF7F2FF16
:1001800003BC00F04BF900000A4880470A480047CA
:10019000FEE7FEE7FEE7FEE7FEE7FEE7FEE7FEE737
:1001A000FEE7FEE74FF0000004494FF00002044B69
:1001B00070470000410A0008ED000008684F002069
:1001C000E84C002010B5431C02E010F8011B71B18F
:1001D0008107FAD14FF0013202C88C1A8C4314EA1D
:1001E000C211F9D0C01A0A0603D0C01E10BDC01A31
:1001F00010BD0A0401D0801E10BD0902FCD0401EB3
:1002000010BD032A40F2308010F0030C00F015807E
:1002100011F8013BBCF1020F624498BF11F801CB09
:1002200000F8013B38BF11F8013BA2F1040298BF6E
:1002300000F801CB38BF00F8013B11F0030300F0D8
:100240008880083AC0F0088051F8043B083A51F819
:1002500004CBA0E80810F5E7121D5CBF51F8043B81
:1002600040F8043BAFF30080D20724BF11F8013BF4
:1002700011F801CB48BF11F8012B24BF00F8013B56
:1002800000F801CB48BF00F8012B704701B5FFF71C
:10029000B8FF01BD01F0FF03114601B543EA032297
:1002A00042EA024200F00BF801BD02F0FF0343EA0C
:1002B000032242EA024200F002B84FF00002042991
:1002C000C0F0128010F0030C00F01B80CCF1040C85
:1002D000BCF1020F18BF00F8012BA8BF20F8022BB9
:1002E000A1EB0C0100F00DB85FEAC17C24BF00F85F
:1002F000012B00F8012B48BF00F8012B70474FF08D
:10030000000200B5134694469646203922BFA0E865
:100310000C50A0E80C50B1F12001BFF4F7AF090771
:1003200028BFA0E80C5048BF0CC05DF804EB890062
:1003300028BF40F8042B08BF704748BF20F8022BA5
:1003400011F0804F18BF00F8012B704770477047BD
:10035000704710B5203AC0F00B80B1E81850203A31
:10036000A0E81850B1E81850A0E81850BFF4F5AF55
:100370005FEA027C24BFB1E81850A0E8185044BFDF
:1003800018C918C0BDE810405FEA827C24BF51F84C
:10039000043B40F8043B08BF7047D20728BF31F840
:1003A000023B48BF11F8012B28BF20F8023B48BF91
:1003B00000F8012B7047754600F02CF8AE4605009A
:1003C0006946534620F00700854618B020B5FFF770
:1003D000E9FEBDE820404FF000064FF000074FF067
:1003E00000084FF0000B21F00701AC46ACE8C00953
:1003F000ACE8C009ACE8C009ACE8C0098D4670475C
:1004000010B50446AFF300802046BDE81040FFF76A
:10041000B4BE000000487047844C002001491820F9
:10042000ABBEFEE726000200704721B1426842F4ED
:100430008062426003E0426822F48062426070475A
:1004400021B1826842F00102826003E0826822F0FA
:100450000102826070470A460021816821F4E04170
:10046000114381607047014600208A6802F004024F
:100470000AB1012000E00020704708B502460020C4
:100480000090009201F12800009B18440090009811
:10049000006880B208BD014600208A6802F00802A8
:1004A0000AB1012000E000207047000030B502468C
:1004B0000020002350680F4C20400D790C6844EA5E
:1004C00005242043506090680B4C2040D1E9025431
:1004D0002C434D7944EA450420439060D06A20F4CF
:1004E00070000C7C641EE4B2234340EA0350D062E7
:1004F00030BD0000FFFEF0FFFDF7F1FFF0B5044650
:100500001546002000220026092911DDE068A1F12E
:100510000A0707EB470C072707FA0CF29043A1F1F3
:100520000A0707EB470703FA07F21043E0600CE005
:10053000206901EB410C072707FA0CF2904301EB0D
:10054000410703FA07F210432061A06BC0F3015684
:10055000EF1C06F1010CA7EB0C0707EB870C1F271C
:1005600007FA0CF29043EF1C06F1010CA7EB0C0705
:1005700007EB870701FA07F21043A063F0BD10B53F
:100580000A4600210023816B21F44011531E41EAE9
:100590000351816310BD816841F00801816070479B
:1005A00021B1826842F40212826003E0826822F480
:1005B000021282607047816841F0040181607047D7
:1005C00010B501220221074800F0DEF8002106489C
:1005D00000F01CF84FF4007000F00AF80120034905
:1005E000087010BD00080140300002406C0000207F
:1005F00000F0805111B10349086001E002494860F0
:1006000070470000040402400000024021B102686B
:1006100042F00102026004E002684FF6FE731A40E5
:10062000026070471AB103680B43036002E003687D
:100630008B430360704710B50022026847F6F073E1
:100640009A430C6A8B6823430C6923434C69234308
:100650008C692343CC6923434C6A23438C6A23432C
:100660001A430260CB6843600B6883604B68C360C9
:1006700010BD2DE9F0410246002500260020002390
:100680000024002791F803C00CF00F0591F803C077
:100690000CF0100CBCF1000F03D091F802C04CEA32
:1006A000050591F800C0BCF1000F31D0146800209E
:1006B0002BE04FF0010C0CFA00F3B1F800C00CEA8B
:1006C00003069E4220D183004FF00F0C0CFA03F773
:1006D000BC4305FA03FC4CEA040491F803C0BCF1E6
:1006E000280F06D14FF0010C0CFA00FCC2F814C020
:1006F0000AE091F803C0BCF1480F05D14FF0010C9E
:100700000CFA00FCC2F810C0401C0828D1D31460B9
:10071000B1F800C0BCF1FF0F34DD546800202EE0BA
:1007200000F1080C4FF0010808FA0CF3B1F800C012
:100730000CEA03069E4221D183004FF00F0C0CFA05
:1007400003F7BC4305FA03FC4CEA040491F803C028
:10075000BCF1280F05D100F1080C08FA0CF8C2F81A
:10076000148091F803C0BCF1480F07D100F1080CC8
:100770004FF0010808FA0CF8C2F81080401C082855
:10078000CED35460BDE8F0810AB1016100E041615F
:100790007047000001460020034A506820F44040A2
:1007A00008435060704700000010024029B1064A1B
:1007B00052690243044B5A6104E0034A526982437E
:1007C000014B5A61704700000010024029B1064AEF
:1007D000D2690243044BDA6104E0034AD2698243DE
:1007E000014BDA61704700000010024029B1064A4F
:1007F00092690243044B9A6104E0034A926982437E
:10080000014B9A61704700000010024030B5002192
:100810000022002400232D4D6D6805F00C0121B14C
:10082000042905D0082923D105E0294D056022E0DF
:10083000274D05601FE0254D6D6805F47012234DAE
:100840006D6805F48034022505EB92421CB9214DF8
:10085000554305600BE01D4D6D6805F400351DB175
:100860001C4D5543056002E0194D5543056002E0FB
:10087000174D056000BF00BF144D6D6805F0F00115
:100880000909154D6B5C0568DD4045600F4D6D68CD
:1008900005F4E061090A104D6B5C4568DD40856038
:1008A0000A4D6D6805F46051C90A0B4D6B5C4568D3
:1008B000DD40C560054D6D6805F44041890B074D6D
:1008C0006B5CC568B5FBF3F5056130BD00100240F7
:1008D00000127A0000093D006E0000207E0000201A
:1008E00021B1028842F04002028004E002884FF603
:1008F000BF731A40028070471AB183880B4383800C
:1009000002E083888B43838070470246002013896E
:100910000B400BB1012000E00020704710B5002211
:10092000028802F441520B884C8823438C8823436D
:10093000CC8823430C8923434C8923438C8923434C
:10094000CC8923431A430280838B4FF2FF742340E8
:1009500083830B8A038210BD10B500F001F810BD2F
:100960000CB50020019000903348006840F48030BE
:100970003149086000BF3048006800F40030009042
:100980000198401C0190009818B90198B0F5A06F2B
:10099000F1D12948006800F4003010B10120009026
:1009A00001E0002000900098012843D1234800680E
:1009B00040F01000214908600846006820F003005C
:1009C00008600846006840F0020008601A48406865
:1009D000194948600846406848600846406840F445
:1009E000806048600846406820F47C1048600846F3
:1009F000406840F4641048600846006840F0807029
:100A0000086000BF0C48006800F000700028F9D0B2
:100A10000948406820F003000749486008464068DC
:100A200040F00200486000BF0348406800F00C003E
:100A30000828F9D10CBD000000100240002002403F
:100A400010B51348006840F00100114908600846DD
:100A50004068104908400E494860084600680E4941
:100A600008400B4908600846006820F480200860B0
:100A70000846406820F4FE0048604FF41F0088607C
:100A8000FFF76AFF4FF000600449086010BD0000E6
:100A9000001002400000FFF8FFFFF6FE08ED00E046
:100AA0004FF08040008A20F001004FF08041088222
:100AB00002480068401C014908607047100000208F
:100AC00010B50E48006820F4FF500D49097840EA3F
:100AD00041100A4908600B48006880470A490978B4
:100AE00008410A4909788840054908700848008883
:100AF00020F001000649088010BD00000C0C0140E8
:100B000064000020600000206600002065000020D6
:100B1000100400400448008820F0010002490880C9
:100B20000120024908707047100800406D00002045
:100B300010B504462CB1606A01F006F8204601F0B9
:100B400003F810BD70B588B0064600F027FED8B196
:100B500000231A466946304600F014FA0546681C20
:100B600010B9002008B070BD202001F05DFC0446E3
:100B70006560002060812081009860610020A06194
:100B80007220A0742046EDE70020EBE701460B48F9
:100B90000068425C09480368481C185C02EB0022AC
:100BA00006480368881C185C02EB0042034803688F
:100BB000C81C185C02EB0060704700004000002079
:100BC00010B50B0E094A1468C21CA354C1F30743A5
:100BD000064A1468821CA354C1F30723034A14680D
:100BE000421CA354014B1B68195410BD4000002047
:100BF00000200149086070471000002010B504482B
:100C0000002101600171052100F028F810BD0000ED
:100C10006700002030B500200E4B1B68C3B10021D7
:100C200012E000220CE00B4B1B685B5C55000124BA
:100C3000AC40234013B900F1100398B2531C9AB290
:100C4000042AF0DB4B1C99B2034B1B889942E8DB6A
:100C500030BD00003000002034000020F8B504460C
:100C60000D460DA0FFF76EFF06469EB104226946B1
:100C7000304601F00DF8BDF90200A84201D928461E
:100C800001E0BDF9020002462146304601F000F8BD
:100C90000120F8BD0020FCE72F636F72652E6366AC
:100CA0006700000038B50EA000F022F80446A4B199
:100CB0000120ADF800000520ADF8020004226946CD
:100CC000204601F03BFC05220849204601F036FC95
:100CD000204601F019FC012038BD0020FCE700008F
:100CE0002F636F72652E6366670000006700002047
:100CF0002DE9F04395B0804600F050FD00287CD0EF
:100D00004046FFF75FFA401E00EB080400E0641E57
:100D1000444505D020782F2802D020780028F6D12D
:100D200020782F2800D1641C2046FFF74BFA18B911
:100D3000002015B0BDE8F083A4EB0800402801DBDB
:100D40000020F6E7A4EB080241460AA8FFF759FA8B
:100D50000020A4EB08010AAA50542022082113A85D
:100D6000FFF7A3FA2022032112A8FFF79EFA00251D
:100D70000AE0605D10B1605D2E2800D106E0605D84
:100D800013A94855681CC5B2082DF2DB00BF2046E8
:100D9000FFF718FAC5B201E0681EC5B2002D02DDEA
:100DA000605D2E28F8D1605D2E2818D1681CC5B270
:100DB0002046FFF707FA401B00F0FF09B9F1030FC7
:100DC00005DA61194A4612A8FFF71BFA06E0601916
:100DD0000188ADF8481080788DF84A0000BF6B4656
:100DE00001AA02A9404600F0CDF80746781CC0B918
:100DF00000231A4602A90AA800E052E000F0C2F857
:100E00000746781C08B9002093E76A4601A93846CE
:100E100000F0C4FD00F04CFD0746781C48B90020E6
:100E200087E7384600F012FE6FF07041384600F058
:100E30008DFD019800F06AF91B480068009908448C
:100E400013990160149941601748016800980830AF
:100E50000844BDF8481001809DF84A10817039B2ED
:100E600000981A3001F028FE39140098143001F06F
:100E700023FE019800F052FB08B9002059E720201A
:100E800001F0D2FA0646376077600199F160009868
:100E9000308200213181718171617721B1743046D6
:100EA00047E7002045E700004000002070B50446F9
:100EB0000D46052D01D2284600E0052002462146B8
:100EC0000248FFF79EF9012070BD00006700002076
:100ED00001460878562816D14878452813D18878D5
:100EE000452810D1C87858280DD1D1E904201044E4
:100EF000B0F5D03F03D8C868B0F5984F01D90020AD
:100F000070470120FCE70020FAE7000000B5024628
:100F1000002119E00E48006940F002000C4B1861F6
:100F2000501858611846006940F04000186100BF31
:100F300000F01EF80028FBD00548006920F00200F0
:100F4000034B186101F58061B1F5D03FE2DB00BDD4
:100F50000020024000BF011EA0F10100FBD170473C
:100F600010B5024801F08AFE10BD00002C000020E0
:100F70000348C06800F0010080F0010070470000E5
:100F8000002002402DE9FF4F8DB00546884600261F
:100F9000701E009000F002FC00287DD028782F28D9
:100FA00006D156480068009001265548D0F800A0A8
:100FB00092E04FF0000909E0A85D05A901F80900D9
:100FC000701C06B209F101000FFA80F9A85D10B19A
:100FD000A85D2F28F0D1002005A901F8090005A877
:100FE000FFF7F0F8002876D00027002457E00AEB3E
:100FF000070000F08BF843480068005DE5282CD01E
:1010000040480068005D052827D03E480068005D24
:101010002E2822D03B480068005DF0B139480168B5
:1010200004F10B00085C0F2817D03649096808192D
:1010300001A900F020FD05A901A800F070FD60B134
:1010400004F11A0001F02AFD834604F1140001F0B6
:1010500025FD0BEB0040009022E02A480068005D6F
:1010600020B94FF0FF3011B0BDE8F08F2034B4F557
:10107000007F14D300247F1C2348007887420ED3BE
:101080000027009800F048FC00906FF07041009835
:10109000884204D1601E00E023E0009000E0A6E753
:1010A00000BFA85D2F2806D101E0701C06B2A85D24
:1010B0002F28FAD00AE0A85D40B9B8F1000F05D09A
:1010C00004F11C00FFF762FDC8F8000000208DF855
:1010D000140001E0FFE703E0A85D00287FF469AF9A
:1010E00000BF0F9818B10AEB07010F980160109824
:1010F00008B1109804600098B5E70000580000207F
:101100005C000020400000204A000020F0B50546A9
:1011100000272148006800283CD02048006885420C
:1011200001D10120F0BD31E0002400BF01F09EFAA2
:10113000FF28FBD12946112000F09EF9064626B172
:10114000052E01D100F0FEFD20E006E02046641CE3
:101150001349884200D900E000BF01F087FAFE2859
:10116000F4D1002405E001F081FA0B490968085523
:10117000641CB4F5007FF6D301F078FA01F076FA3A
:1011800001F074FA054805600120CBE738467F1C62
:101190000828C9D30020C5E74000002044000020F3
:1011A000FEFF0F0010B500210220FFF70FFB1D20EE
:1011B000002817DB00F01F02012191400A4A430971
:1011C00042F8231000BF00BF00BFBFF34F8F00BF26
:1011D00000BF00BF00BF00BF00BFBFF36F8F00BFE5
:1011E00000BF00BF00BF10BD80E100E070B5044645
:1011F0000D4602F0DFF909480460412095FBF0F04C
:10120000074908800846008800EB80110348006801
:10121000FFF753F800F022F970BD00003000002005
:101220003400002000B591B001210420FFF7DEFA60
:1012300001210820FFF7DAFA01211020FFF7D6FA82
:1012400001214802FFF7D2FA01218802FFF7CEFA06
:101250004FF44040FFF79EFA01210846FFF7A6FA37
:1012600003208DF8420048208DF8430041F2011020
:10127000ADF8400010A96D48FFF7FBF94FF460404E
:10128000ADF8400010A96A48FFF7F3F903208DF884
:10129000420010208DF843004FF4FF50ADF840009D
:1012A00010A96448FFF7E5F900200B9001208DF8A4
:1012B00030008DF831004FF460200D9000200E902A
:1012C00002208DF83C000BA95B48FFF7EFF80221E4
:1012D0005948FFF754F901231A4608215648FFF7E9
:1012E0000DF90123022209215348FFF707F94FF4B2
:1012F000E0415148FFF7AFF801214F48FFF7A0F850
:101300004D48FFF748F900BF4B48FFF7C4F80028E5
:10131000FAD14948FFF74FF900BF4748FFF7A3F854
:101320000028FAD101214448FFF77FF80121424803
:10133000FFF736F906A8FFF769FA01210846FFF71B
:1013400045FA42F210710698B0FBF1F0401E890692
:1013500008850A2088854007808940F0010088813F
:101360000846008840F0010008801C20002809DBA6
:1013700000F01F02012191404209920002F1E02297
:10138000C2F8001100BF01210803FFF72FFA012165
:101390008803FFF71BFA18208DF84300E020ADF812
:1013A000400010A92148FFF764F90020ADF80400BF
:1013B0004FF48270ADF806000020ADF80800ADF8DB
:1013C0000A00ADF80C004FF40070ADF80E000020DC
:1013D000ADF81000ADF8120001A91848FFF79EFA09
:1013E00001211648FFF77CFA18208DF843004FF4CE
:1013F0002040ADF8400010A90E48FFF73AF9482008
:101400008DF843004FF48040ADF8400010A9094822
:10141000FFF72FF901A90A48FFF780FA01210848D0
:10142000FFF75EFA012011B000BD00000008014086
:1014300000100140000C0140002401400030014038
:10144000003800400248034948600348486070473C
:101450002301674500200240AB89EFCD10B5054858
:10146000006830B10348006800F06EFB00200149BD
:10147000086010BD4000002070B502460B460026F3
:101480002548007820B9112A01D0182A00D15B0222
:1014900042F0400001F0F0F8180E01F0EDF8C3F34F
:1014A000074001F0E9F8C3F3072001F0E5F8D8B2EE
:1014B00001F0E2F8082A01D1872100E095210846D1
:1014C00001F0DAF807E03046711C8EB24FF6FE717B
:1014D000884200DD04E001F0C9F80446FF28F2D09C
:1014E00000BFA4B93A2A12D101F0C0F8054605F0B0
:1014F000400018B101200849087002E000200649A8
:10150000087001F0B3F801F0B1F801F0AFF801F0A4
:10151000ADF8204670BD0000480000202DE9F041E4
:10152000074630480068002859D04FF000080020D6
:10153000044605460FE02B480068005D80EA252040
:10154000C6B286EA2616280280EA063080EA4610ED
:10155000704085B2641CB4F5007FECD339E000BF65
:1015600001F084F8FF28FBD139461820FFF784FFEB
:1015700010B100F0E7FB2CE000BF01F077F8FF2886
:10158000FBD1FE2001F078F8002405E01549096838
:10159000085D01F071F8641CB4F5007FF6D32812E1
:1015A00001F06AF8E8B201F067F8002400BF01F02A
:1015B0005DF800F01F00052804D02046641C0A498D
:1015C0008842F4D30848844200D302E00120BDE8F9
:1015D000F081404608F101080828C0D300BF002070
:1015E000F5E7000040000020FEFF0F0010B50D4899
:1015F000FFF76EFCA0B10CA0FFF77AFB04460CB914
:10160000002010BD4FF4D0320649204600F096FF6E
:1016100008B90020F5E7204600F076FF0120F0E74A
:101620000020EEE7006000082F64656275672E7683
:101630006578000070B50546284600F02BF906468F
:101640004FF4007107480068FEF737FE002403E0FE
:101650003019FFF763FF641C034800788442F7DB0E
:1016600070BD0000400000204A0000202DE9F0413C
:10167000044600F093F8002876D02068401C00282B
:10168000FAD082E0E588E0882030E080E088B0F59C
:10169000007F0FDB0020E080A088401CA080A08895
:1016A0003B490978884205DB4FF0FF30206000207D
:1016B000BDE8F081206800F0EDF8A18847183846B1
:1016C000FFF724FD33480068405D48B131480068A9
:1016D000405D202804D02F480068405DFF2800D1DD
:1016E00053E02C480068405DE52800D14DE02948D2
:1016F000016805F10B00085C0F2845D0254A616A96
:101700001268501900F0B7F9606AFEF75BFDC6B2C7
:1017100005F11C00FFF73AFAA06005F1140001F092
:10172000BDF920840021217605F10B0001F0AEF90E
:1017300000F0020018B1207E40F00101217605F191
:101740000B0001F0A3F900F0040018B1207E40F076
:1017500003012176F11E626A50180FA100F0DFF933
:1017600018B1012161760CE010E005F10B0001F0E9
:101770008DF900F0100010B10221617601E0002126
:10178000617604F1080093E700BF7BE700208FE754
:101790004A000020400000205645580010B50A4875
:1017A000006848B94FF0FF30084908604FF42070D6
:1017B00000F03AFE044908600348006808B10120BF
:1017C00010BD0020FCE70000400000204400002085
:1017D00070B586B004460D461646B4F57A7F03DB35
:1017E0004AF64440844202DD002006B070BD082D58
:1017F00008DAC5F1080040B22149087000202149EB
:10180000087007E0A5F1080040B21E4908700020EA
:101810001B4908701C48066001A8FEF7F7FF01216C
:101820000220FEF7D3FF194890FBF4F0401E184940
:10183000088016490198B0FBF1F01549091D088090
:1018400013481C38008840F0010011491C390880F9
:101850000F482838008840F001000D4928390880D9
:101860001D20002809DB00F01F02012191404209E0
:10187000920002F1E022C2F8001100BF0120B4E79B
:1018800065000020660000206000002040420F003C
:10189000280400400146881E034A1278034B1B6847
:1018A00000FB0230704700004A0000205C0000206E
:1018B00070B511480568002600241BE02846FFF794
:1018C00025FC2046FFF762F968B96FF070412046A9
:1018D000FFF776F92846FFF721FE10B94FF0FF30E9
:1018E00070BD3046FCE7761C241DB4F5007F01D3A3
:1018F0006D1C0024E2E7000050000020002809DBF6
:1019000000F01F02012191404209920002F1E02201
:10191000C2F800117047000070B504462046E11778
:1019200004EB5161CD11E11704EB5161C911A4EB36
:10193000C1118E00044909684819FFF7E7FB3046DA
:10194000FFF724F970BD000050000020F0B50446F8
:101950000E462046E11704EB5161CD11E11704EB6F
:101960005161C911A4EBC1118F00074909684819D9
:10197000FFF7CCFB31463846FFF722F902490968E8
:101980004819FFF7CBFDF0BD500000200249086860
:101990000021014A11607047100000202DE9F04736
:1019A00081460E4617464846FFF774FF80460025DD
:1019B000002427E008EB0500FFF7A8FB15480068A6
:1019C000005D20B113480068005DE52800D11AE0F1
:1019D0002034B4F5007F15DB6D1C00240E48007820
:1019E00085420FDB0025FFF763FF82465046FFF775
:1019F00021FE51464846FFF7A9FF6FF0704150465F
:101A0000FFF7A4FFD6E700BF08EB050030603C609D
:101A1000BDE8F087400000204A00002010B51421E6
:101A20000348FEF72AFDA0F5006000B210BD0000DB
:101A30000024014010B518210348FEF71EFDA0F553
:101A4000006000B210BD00000024014030B5054622
:101A50000EE02846FFF760FF044600212846FFF706
:101A600075FF6FF07040844200D004B901E0254654
:101A7000EFE700BF30BD10B50246002302E0D45CA2
:101A8000CC545B1C082BFADB082005E0431ED8B2BF
:101A90000B5C202B00D001E00028F7DC00BF431CCA
:101AA000D8B2137A202B1AD02E230B54431CD8B251
:101AB000002306E003F10804145D0C54441CE0B25A
:101AC0005B1C032BF6DB05E0431ED8B20B5C202B1E
:101AD00000D001E00028F7DC00BF431CD8B200238F
:101AE0000B5410BD024605E0107808B9012070477C
:101AF000521C491C10780B789842F5D00020F6E76C
:101B000070B504460D462946204600F055FE20B12A
:101B100000F08EFD08B1012070BD0020FCE710B57B
:101B200002460B4605E0107808B9012010BD521C92
:101B30005B1C107800F0BAFD0446187800F0B6FD82
:101B40008442F0D00020F1E7F0B503461F4D2D6828
:101B5000002D39D0002B37D01C4E36689E1B1C4FF1
:101B60003F88F51BEE1705EB1676C6F30F100546FA
:101B7000C61700EB9676B110C61700EB9676B61036
:101B8000A0EB86064FF6FF7707EA46021AE00F4DF4
:101B90002D686D5C154105F0030404B913E00B4D8D
:101BA0002D686E5C03259540AE43084D2D686E543C
:101BB000032C00D107E0951CAAB2082A02D100220A
:101BC0004D1CA9B2E3E700BFF0BD000030000020CB
:101BD000340000202DE9F04104460D46271E00DAAE
:101BE0006442002600BF0A2094FBF0F100FB114084
:101BF0003030C2B23046761C2A540A2094FBF0F0F2
:101C0000041EF0DC002F03DA2D223046761C2A5405
:101C10000020A855284600F0F7FCBDE8F08170B51B
:101C20000024002519E0FFF7F9FEA8400444FFF75F
:101C300001FFA840044400F0B9FD04EB400404F0A7
:101C4000004040B904F4000028B904F4004010B981
:101C500004F0800000B164086D1C202DE3DB2046F9
:101C600070BD70B505460C462046FEF7ABFA02285B
:101C70000CD92078632809D160782E2806D1A11CC0
:101C80002846FFF72FFF08B1012070BD0020FCE7B8
:101C90002DE9F04704460D469046FFF77FFD0028EA
:101CA0004AD0A07C722847D16068FFF7F3FD8146D7
:101CB0002E46A769D4F814A035E0574500D337E085
:101CC0007F1C218901EB0900FFF720FA10B90020E1
:101CD000BDE8F087608919490968085C3070761C96
:101CE0006089401C60816089B0F5007F1BDB0020AB
:101CF00060812089401C208120891149097888420F
:101D000011DB002020816068FFF706FE60606FF045
:101D100070416068884202DB0020606108E0606812
:101D2000FFF7B8FD8146B8F10000A8F10108C4D161
:101D300000BFA761701BCBE70020C9E7400000206F
:101D40004A000020F0B502270024002502E000F040
:101D50008DFC6D1C282DFAD305E02046641C40281C
:101D600001D90120F0BD00210846FFF785FB0128BD
:101D7000F3D100F07BFC00F079FC002405E0204664
:101D8000641CFE2801D9012706E04FF4D571082014
:101D9000FFF772FB0128F2D100BF002400BF002131
:101DA0003720FFF769FB06464FF080412920FFF7F7
:101DB00063FB0646641C4FF6FE70844201D9012085
:101DC000D0E7002EEBD1002400200A490870022F32
:101DD0000ED106E02046641C40F6FE71884200D910
:101DE00005E000213A20FFF747FB0028F2D100BFB1
:101DF0000020B7E74800002010B504462146B6A0F1
:101E0000FFF72FFF08B1B84810BD2146B7A0FFF774
:101E100028FF08B1B948F7E72146B9A0FFF721FF2D
:101E200008B1BB48F0E72146BAA0FFF71AFF08B196
:101E3000BC48E9E72146BCA0FFF713FF08B1C04842
:101E4000E2E72146BFA0FFF70CFF08B1C348DBE77C
:101E50002146C3A0FFF705FF08B1C648D4E72146D5
:101E6000C5A0FFF7FEFE08B1C848CDE72146C8A0CF
:101E7000FFF7F7FE08B1C948C6E72146C8A0FFF73B
:101E8000F0FE08B1C948BFE72146C9A0FFF7E9FE47
:101E900008B1C948B8E72146C8A0FFF7E2FE08B17B
:101EA000C848B1E72146C8A0FFF7DBFE08B1C94822
:101EB000AAE72146C8A0FFF7D4FE08B1CA48A3E7A5
:101EC0002146CAA0FFF7CDFE08B1CC489CE72146C9
:101ED000CBA0FFF7C6FE08B1CD4895E72146CDA0BF
:101EE000FFF7BFFE08B1CE488EE72146CDA0FFF731
:101EF000B8FE08B1CE4887E72146CEA0FFF7B1FE75
:101F000008B1CF4880E72146CEA0FFF7AAFE08B16E
:101F1000CE4879E72146CEA0FFF7A3FE08B1D0480E
:101F200072E72146CFA0FFF79CFE08B1D0486BE7CF
:101F30002146D0A0FFF795FE08B1D14864E72146BD
:101F4000D0A0FFF78EFE08B1D1485DE72146D1A0B1
:101F5000FFF787FE08B1D24856E72146D1A0FFF728
:101F600080FE08B1D2484FE72146D2A0FFF779FEA4
:101F700008B1D34848E72146D2A0FFF772FE08B166
:101F8000D44841E72146D4A0FFF76BFE08B1D648FC
:101F90003AE72146D5A0FFF764FE08B1D64833E7FB
:101FA0002146D6A0FFF75DFE08B1D7482CE72146B1
:101FB000D6A0FFF756FE08B1D74825E72146D7A09F
:101FC000FFF74FFE08B1D8481EE72146D7A0FFF71C
:101FD00048FE08B1DA4817E72146DAA0FFF741FECC
:101FE00008B1DB4810E72146DAA0FFF73AFE08B156
:101FF000DA4809E72146DAA0FFF733FE08B1DA48EC
:1020000002E72146D9A0FFF72CFE08B1DA48FBE62B
:102010002146DAA0FFF725FE08B1D948F4E62146AB
:10202000D8A0FFF71EFE08B1D848EDE62146D8A09B
:10203000FFF717FE08B1D848E6E62146D7A0FFF71C
:1020400010FE08B1D748DFE62146D7A0FFF709FE0A
:1020500008B1D748D8E62146D6A0FFF702FE08B15E
:10206000D648D1E62146D6A0FFF7FBFD08B1D548FA
:10207000CAE62146D4A0FFF7F4FD08B1D548C3E66F
:102080002146D5A0FFF7EDFD08B1D648BCE62146B4
:10209000D5A0FFF7E6FD08B1D648B5E62146D6A0A3
:1020A000FFF7DFFD08B1D748AEE62146D6A0FFF71F
:1020B000D8FD08B10120A7E62146D7A0FFF7D1FD42
:1020C00008B1A648A0E62146D5A0FFF7CAFD08B191
:1020D000A54899E6002097E67365744C696E6543E0
:1020E0006C65617200000000553400087365744629
:1020F000696C6C436F6C6F7200000000393400082B
:102100007365745370726974654C696D697400000D
:102110007D350008646973706C61795370726974FD
:102120006500000061340008646973706C61795364
:1021300070726974654269744D61736B00000000D0
:1021400031380008646973706C6179537072697416
:1021500065427974654D61736B0000006939000850
:10216000646973706C61795370726974654D6174E0
:1021700072697800A5360008646973706C617946ED
:10218000696C6C656452656374000000E535000895
:10219000646973706C617952656374007933000807
:1021A000646973706C61795465787400D13100088A
:1021B00073796E6300000000610F00087365744658
:1021C00050530000F524000873657450616C657409
:1021D0007465000061330008676574537072697438
:1021E000654C696D6974000071350008676574534A
:1021F000707269746543617368000000653500089A
:10220000676574427574746F6E5374617465000011
:10221000DD3200086765745841786973000000007A
:10222000093300086765745941786973000000003C
:102230003533000873657446534D656D6F727900D0
:10224000C52600087265616444697200412A00086D
:10225000726561644E65787446696C6500000000C3
:102260006D160008636C6F736544697200000000AE
:10227000310B00086F70656E546F52656164000029
:10228000450B00086F70656E546F57726974650076
:10229000F10C00087265616446696C65000000001D
:1022A000911C0008777269746546696C65000000CE
:1022B0003D250008636C6F736546696C650000001E
:1022C00009250008656E61626C65536F756E644D1B
:1022D0006F6E6F00D117000864697361626C65539B
:1022E0006F756E6400000000A511000867657443F7
:1022F0006F6E666967000000E92A00086170706C03
:1023000079436F6E66696700AD0E0008736176658C
:10231000436F6E6669670000A50C0008676574541A
:10232000696D657200000000AD2700086765745490
:10233000696D657257697468436C6561720000006D
:102340008D190008636C65617254696D65720000D7
:10235000F10B00086D616C6C6F63000029240008AC
:102360006672656500000000491B000867657446D9
:102370007265654D656D0000150C0008636D700099
:10238000E51A000869746F6100000000D51B0008A1
:102390006D656D7365740000950200086D656D6371
:1023A000707900008D0200087374726C656E000015
:1023B000C501000872616E64000000001F1C000867
:1023C00072756E00011B00085F5F756D6F64736945
:1023D00033000000DD2A00085F5F6D6F64736933AE
:1023E00000000000A12700085F5F756469767369CB
:1023F00033000000D52A00085F5F64697673693393
:1024000000000000992700085F556E77696E645FD1
:10241000526573756D6500005F5A6E776A00000043
:102420005F5A646C50760000F0B5044604F00F006B
:1024300008B1012000E0002000EB141085B2002656
:102440002A48006800284ED0002C4CD0002146E0DD
:1024500026480068405C00F0550055283CD000221A
:1024600037E022480068405C4FEA420C012707FA37
:102470000CF7384050BB701C86B2AE4227D1002307
:1024800018E00BB9032000E001205700B840174FB7
:102490003F687F5C3843154F3F687854681E984208
:1024A00006D0501E82B2042A02DD0322481E81B2E9
:1024B000581C83B2AB42E4DB0C4800680C4F3F88E9
:1024C000074402EB810007EB0010F0BD0026501C12
:1024D00082B2042AC5DB00E00026481C81B2044811
:1024E00000888142B4DB0020EFE7000030000020CC
:1024F0003400002010B504462146024800F0FDFDDE
:1025000010BD00002C00002010B50446ACB1FFF750
:1025100045F978B1A07C77280CD1E068FEF7F6FD8C
:1025200040B1228A02F11C006169FEF749FBE068B4
:10253000FEF7F4FF2046FFF707FB10BD2DE9F0473B
:1025400004460D469146FFF729F9002846D0A07CA5
:10255000772843D12E466068FFF79CF9074631E0A3
:102560002189C819FEF7D2FD307861891C4A1268AA
:102570005054761C6089401C60816069401C606119
:102580006089B0F5007F1DDB2189C819FEF7C6FF01
:10259000002060812089401C208120891149097810
:1025A00088420FDB00202081FFF782F980464146F8
:1025B0006068FFF7CBF9C4F804804046FFF76AF97A
:1025C000074600BFB9F10000A9F10109C8D121896E
:1025D000C819FEF7A3FF701BBDE8F0870020FBE7DA
:1025E000400000204A00002038B5044600200A239D
:1025F0001A4604210090204600F0EAFD014800F050
:102600003DFB38BD2C0000202DE9F041044600259B
:102610002046FDF7D7FD461E05E0675DA05D6055CD
:10262000A7556D1C761EB542F7D3BDE8F0810000BA
:1026300070B50B4A1288C2F5984291B2094A084B0C
:102640001B88D018FEF7D2FD002000F089FE064856
:102650000068441C2546A8470646304670BD000069
:102660003C000020840000203800002000B5FF203E
:1026700000F002F800BD0000014600BF0A480088D3
:1026800000F002000028F9D00748001D018000BFBB
:102690000548008800F001000028F9D00248001D1C
:1026A0000088C0B270470000083800400146612928
:1026B00004DB7A2902DCA1F1200000E00846C0B268
:1026C0007047000010B5FFF73DFB2B490870084626
:1026D000007800284DD1FFF761F80020FEF716FDC5
:1026E00008B9002010BD4FF4FF7000F0D7F94AF68A
:1026F0005521884201D00020F4E74FF4E37000F048
:10270000CDF904462046FEF701FD08B90020E9E7AF
:102710000D2000F0BBF9194908700C2000F0B6F943
:10272000174908702420FEF731FA164908600E2078
:1027300000F0B4F9204414490860084600681149C3
:1027400009680F4A127801FB0200104908602C202A
:10275000FEF71CFA0E49086008460068801E07490B
:1027600009780A4A126800FB01200A490860012022
:10277000B8E70020B6E70000490000204A0000202A
:102780004B0000204C00002050000020540000208E
:10279000580000205C000020024692FBF1F07047D8
:1027A000024692FBF1F001FB1020704701480068DF
:1027B00070470000100000202DE9F34F95B00C4643
:1027C000002002901598FEF7BDF9009000980028AF
:1027D00075D01C220EA90098FFF75AFA0EA8FEF732
:1027E00077FB0028F4D0FEF72DFE7B48FEF78EFB2A
:1027F0007949129800EB010AEAE008220CA9009836
:10280000FFF746FA9DF8300000287DD003287CD0E1
:1028100004287BD006287AD14FF0000BA2E01022CA
:1028200008A90098FFF734FADDE9090101440B9883
:1028300001EB001007900B9806902146079A00982C
:10284000FFF726FA002780E0099820440A990844F7
:1028500000EB071630680899451AB088012806D0A1
:1028600002285ED0032862D0042867D100E000BFB0
:10287000F079012806D00098FFF746FE002017B037
:10288000BDE8F08FB079012845D1B088012805D185
:102890005149F068084400F1010811E0099820440A
:1028A000B168084401900198FFF7A6FA8046B8F194
:1028B000000F05D10098FFF727FE0020DFE788E032
:1028C000605910B944F8058025E043490898084448
:1028D000284405900598A8EB0000001FC0F31609D6
:1028E0004FEA19300490C9F34A000390605B00F48A
:1028F00078410498084400B26053A81C205A00F4A0
:1029000078410398084403E049E03DE02FE059E0B6
:1029100001B2A81C2152B07910B9F068504460513E
:1029200011E06059F1685144084460510BE060596E
:102930002A4AF16811440844605104E00098FFF706
:10294000E3FD00209BE700BF7F1C06988742FFF451
:102950007BAF214BDDE90802C118204600F044F8A6
:102960000BF1010B0D9858453FF659AF2FE00D982C
:1029700048B121460D9A0098FFF78AF95146204642
:102980000D9A00F031F822E00D9838B10D9880B220
:10299000029012490D9A0098FFF77AF917E0029811
:1029A000C0F598410D48FDF788FC0B491498084480
:1029B0000B4908600B49119808800098FFF7A4FDA7
:1029C00001205CE70098FFF79FFD002057E700BF5C
:1029D00013E7002053E70000006000088400002097
:1029E000380000203C00002030B50446154613484E
:1029F000006940F00100114A1061002315E000BF9A
:102A0000FEF7B6FA0028FBD0E2580A8000BFFEF7B6
:102A1000AFFA0028FBD0891C120C0A8000BFFEF719
:102A2000A7FA0028FBD0891C1B1DAB42E7D3034843
:102A3000006920F00100014A106130BD0020024011
:102A400070B50646FEF7AAFEE8B100231A461946FD
:102A50003046FEF797FA0546681C08B9002070BD9D
:102A60002820FFF7E1FC044625600020A080E080DC
:102A7000202104F10800FDF742FC2020FFF7D4FCE0
:102A800060622046EBE70020E9E7000001460248CB
:102A90000068405C70470000400000200146054887
:102AA0000068425C03480368481C185C02EB002085
:102AB00080B270474000002010B5C1F30723044ADC
:102AC0001468421CA354024B1B68195410BD00002B
:102AD000400000200246B2FBF1F070470246B2FB14
:102AE000F1F001FB1020704770B505460C46052C2F
:102AF00001D2204600E00520024603492846FDF7A2
:102B000080FB012070BD00006700002070B5054605
:102B10000C4600BF02210648FDF7F7FE0028F9D059
:102B2000012204210348FDF72FFE0148848170BD76
:102B3000003001400008014070B505460C4600BF5A
:102B400002210C48FDF7E1FE0028F9D00122042102
:102B50000948FDF719FE20120649888100BF0221AD
:102B60000448FDF7D2FE0028F9D0E0B2014988817F
:102B700070BD000000300140000801402DE9F04127
:102B800006460F464FF42070FFF74EFC04460CB982
:102B9000BDE8F0814FF4A0720021304600F09CFAAD
:102BA000F0220021304600F001FB2C21304600F0DD
:102BB000DDFA012204211648FDF7E6FD002210216E
:102BC0001348FDF7E1FD002004E0002124F8101077
:102BD000411C88B2B0F5A07FF7DB002511E0002092
:102BE0000C4908702146304600F090FA01210A484D
:102BF000FDF70CFD00BF074800780028FBD0681CDB
:102C000085B2F02DEBDB2046FEF79EFF00BFBFE74D
:102C1000000801406C0000203000024030B585B053
:102C200005460C466846FDF7F1FD01210420FDF73D
:102C3000CDFD42F210710098B0FBF1F0401E0E493C
:102C4000088042F2107090FBF4F0091D08800A48D9
:102C50001C38008840F0010007491C3908800648EC
:102C60002838008840F001000349283908801E20D8
:102C7000FEF744FE05B030BD280800402DE9F041C4
:102C800007464FF42070FFF7CFFB04464FF4207047
:102C9000FFF7CAFB05463CB9FEF7E0FB4FF4207096
:102CA000FFF7C2FB044607E035B9FEF7D7FB4FF448
:102CB0002070FFF7B9FB0546F0220021384600F0EE
:102CC00075FA4FF4A0720021384600F005FA2C2165
:102CD000384600F04BFA012204212F48FDF754FD3D
:102CE000002210212C48FDF74FFD34B32DB3A04630
:102CF0004146002000F0DCFE01261BE000202749B1
:102D000008704146384600F001FA01212448FDF7D9
:102D10007DFCA04501D1284600E020468046414682
:102D200030B200F0C5FE00BF1C4800780028FBD080
:102D3000701C86B2F02EE1DD1AE0CCB1002615E061
:102D4000214630B200F0B4FE00201449087021463C
:102D5000384600F0DBF901211148FDF757FC00BFB0
:102D60000E4800780028FBD0701C86B2F02EE7DDFC
:102D70002046FEF7E9FE2846FEF7E6FE00F092FE4A
:102D800000BF387818B1074800780028F9D0002033
:102D900004490870BDE8F081000801406C00002083
:102DA000300002406D00002038B504460020C849BC
:102DB0000870207001210846FDF7F8FC03208DF80B
:102DC000020010208DF803001E20ADF800006946B7
:102DD000C048FDF74EFC01221021BE48FDF7D4FC8F
:102DE00044F62060FEF7B6F800220821B948FDF746
:102DF000CBFC44F62060FEF7ADF801220821B5486F
:102E0000FDF7C2FC44F62060FEF7A4F844F620600B
:102E1000FEF7A0F80121204600F0A8F944F6206052
:102E2000FEF798F8CB21204600F0A0F93921204682
:102E3000FFF76CFE2C212046FFF768FE002120469C
:102E4000FFF764FE34212046FFF760FE0221204692
:102E5000FFF75CFECF21204600F088F900212046D4
:102E6000FFF754FEC1212046FFF750FE30212046D7
:102E7000FFF74CFEE821204600F078F98521204636
:102E8000FFF744FE00212046FFF740FE7821204650
:102E9000FFF73CFEEA21204600F068F900212046B9
:102EA000FFF734FE00212046FFF730FEED212046DB
:102EB00000F05CF964212046FFF728FE032120463C
:102EC000FFF724FE12212046FFF720FE8121204635
:102ED000FFF71CFEF721204600F048F9202120468C
:102EE000FFF714FEC021204600F040F925212046BE
:102EF000FFF70CFEC121204600F038F910212046D2
:102F0000FFF704FEC521204600F030F93E2120469F
:102F1000FFF7FCFD28212046FFF7F8FDC7212046DA
:102F200000F024F986212046FFF7F0FD36212046E7
:102F300000F01CF948212046FFF7E8FD3A21204621
:102F400000F014F955212046FFF7E0FDB12120469D
:102F500000F00CF900212046FFF7D8FD182120468B
:102F6000FFF7D4FDB621204600F000F908212046E5
:102F7000FFF7CCFD82212046FFF7C8FD2721204620
:102F8000FFF7C4FD1121204600F0F0F8292120466A
:102F900000F0ECF8F221204600F0E8F8002120468D
:102FA000FFF7B4FD2621204600F0E0F8012120467D
:102FB000FFF7ACFDE021204600F0D8F80F212046B5
:102FC000FFF7A4FD31212046FFF7A0FD2B2120466D
:102FD000FFF79CFD0C212046FFF798FD0E212046AF
:102FE000FFF794FD08212046FFF790FD4E21204673
:102FF000FFF78CFDF1212046FFF788FD37212046A1
:10300000FFF784FD07212046FFF780FD10212046B1
:10301000FFF77CFD03212046FFF778FD0E212046B7
:10302000FFF774FD09212046FFF770FD00212046BF
:10303000FFF76CFDE121204600F098F800212046C2
:10304000FFF764FD0E212046FFF760FD14212046A6
:10305000FFF75CFD03212046FFF758FD11212046B4
:10306000FFF754FD07212046FFF750FD3121204690
:10307000FFF74CFDC1212046FFF748FD48212046BF
:10308000FFF744FD08212046FFF740FD0F212046B1
:10309000FFF73CFD0C212046FFF738FD312120468B
:1030A000FFF734FD36212046FFF730FD0F21204683
:1030B000FFF72CFD3621204600F058F8E821204685
:1030C000FFF724FD00212046FFF758FD38BD000022
:1030D0006C0000200008014070B505460E461446FD
:1030E0002A21284600F042F831462846FFF724FD01
:1030F00021462846FFF720FD70BD70B505460C46F9
:103100002C7021462846FFF789FD70BD30B58BB085
:1031100005460C46134800900194102002904FF48D
:103120002070039000200A900790802005900020D6
:103130000490089006904FF48050099069460A4820
:10314000FDF779FA0122022106480C38FDF7D4FB7D
:10315000012202210448FDF765FA0D20FEF7CEFB9F
:103160000BB030BD0C3001403000024070B5054658
:103170000C4600BF02210B48FDF7C7FB0028F9D021
:10318000012210210848FDF7FFFA00220421064819
:10319000FDF7FAFA002210210348FDF7F5FA01487D
:1031A000848170BD003001400008014070B50546C3
:1031B0000E4614462B212846FFF7D8FF31462846F5
:1031C000FFF7BAFC21462846FFF7B6FC70BD0000A9
:1031D0002DE9FF4F85B0074615469846DDF8489023
:1031E0003846FCF7EFFF834600265DE0BC5D4FF0FC
:1031F000000A612C04DB7A2C02DCA4F12000C4B2AA
:10320000412C08DB5A2C06DCA4F1410000EB400005
:10321000284901EB800A302C08DB392C06DCA4F1AC
:10322000160000EB4000234901EB800A2D2C01D150
:10323000DFF884A02B2C01D1DFF880A0272C01D14E
:10324000DFF87CA02E2C01D1DFF878A02C2C01D146
:10325000DFF874A05F2C01D1DFF870A07E2C01D1C3
:10326000DFF86CA02F2C01D1DFF868A0212C01D150
:10327000DFF864A0BAF1000F0DD000200C2101226C
:103280000FFA88F3CDE90209CDE900212AB25046B0
:10329000069900F0CDFAB9F1000F01D0102000E03E
:1032A0000820284485B2761C5E459FDB09B0BDE846
:1032B000F08F000070440008204600082C460008EB
:1032C0003846000844460008504600085C4600089E
:1032D0006846000874460008804600080146052933
:1032E0000CDC074850F821008068064A32F81120AB
:1032F000104008B9012070470020FCE70020FAE7E1
:10330000140000206444000870B50024002503E088
:10331000FEF784FB04446D1C082DF9DB044800789B
:1033200010B1E010404200E0E01000B270BD0000BB
:103330006700002070B50024002503E0FEF77AFB4B
:1033400004446D1C082DF9DB0448407810B1E010EE
:10335000404200E0E01000B270BD000067000020B5
:1033600010B10349086002E00249014A1160704748
:103370000C00002050440008F0B5DDE905542B4E48
:1033800036882B4F3F88BE424EDA0626294F3F68CB
:10339000DFF898C0BCF800C007EB0C173E73254E51
:1033A0003668224F3F8806EB0716B180214E3668FB
:1033B0001E4F3F8806EB0716F2800CB15E0000E05E
:1033C0001E461C4F3F68DFF864C0BCF800C007EB26
:1033D0000C173E810CB16E0000E02E46154F3F6881
:1033E000DFF848C0BCF800C007EB0C177E81114E17
:1033F00036680E4F3F8806EB0716B4730D4E3668DD
:103400000A4F3F8806EB071670730027094E36688F
:10341000DFF818C0BCF800C006EB0C16F773034EBB
:103420003688761C014F3E80F0BD00000800002069
:103430000600002000000020012803D1FF21044ADB
:10344000117003E00021024A117000BF00BF7047F5
:103450000400002001490870704700000A000020A5
:103460002DE9F041DDE90656089C3B4F3F88DFF827
:10347000ECC0BCF800C067456CDA394F3F68DFF834
:10348000D8C0BCF800C007EB0C1738600127DFF884
:10349000D0C0DCF800C0DFF8C080B8F800800CEBCA
:1034A000081C8CF80C702E4F3F68DFF8ACC0BCF8DD
:1034B00000C007EB0C17B980294F3F68DFF898C0B0
:1034C000BCF800C007EB0C17FA800CB15F0000E0FD
:1034D0001F46DFF88CC0DCF800C0DFF87C80B8F84D
:1034E00000800CEB081CACF808700CB16F0000E019
:1034F0002F461FFA87FC1A4F3F68DFF85C80B8F848
:10350000008007EB0817A7F80AC0154F3F68DFF8DF
:1035100048C0BCF800C007EB0C17BC73104F3F68E5
:10352000DFF834C0BCF800C007EB0C17FE734FF097
:10353000000C0B4F3F68DFF82080B8F8008007EBE5
:10354000081787F80DC0044F3F887F1CDFF808C0BC
:10355000ACF80070BDE8F0810800002006000020F3
:10356000000000200148008870470000080000208B
:1035700001480088704700000600002010B504468E
:1035800000F018F874B12001FEF74EFF06490860FC
:103590000846006830B105480480002004490880CE
:1035A000012010BD0020FCE70000002006000020E4
:1035B0000800002010B50848006858B100200749ED
:1035C00008800749088004480068FEF7BDFA00201B
:1035D0000149086010BD0000000000200600002026
:1035E00008000020F0B5DDE905542B4E36882B4F3E
:1035F0003F88BE424EDA0526294F3F68DFF898C063
:10360000BCF800C007EB0C173E73254E3668224FFE
:103610003F8806EB0716B180214E36681E4F3F8863
:1036200006EB0716F2800CB15E0000E01E461C4F50
:103630003F68DFF864C0BCF800C007EB0C173E81A0
:103640000CB16E0000E02E46154F3F68DFF848C011
:10365000BCF800C007EB0C177E81114E36680E4F88
:103660003F8806EB0716B4730D4E36680A4F3F8845
:1036700006EB071670730027094E3668DFF818C08E
:10368000BCF800C006EB0C16F773034E3688761CA8
:10369000014F3E80F0BD0000080000200600002021
:1036A000000000202DE9F0470746DDE9096C089D80
:1036B0000B9C5C480088DFF87081B8F800804045BA
:1036C00070DA0020082914D006DC01290BD0022969
:1036D0000BD0042915D10AE010290CD020290CD0D8
:1036E00040290ED10BE000200DE001200BE002206C
:1036F00009E0032007E0042005E0052003E00620A0
:1037000001E0BDE8F08700BFDFF82081D8F8008035
:10371000DFF81091B9F8009008EB0918C8F80070AC
:103720004FF00408DFF80491D9F80090DFF8F4A016
:10373000BAF800A009EB0A1989F80C80DFF8EC80D0
:10374000D8F80080DFF8DC90B9F8009008EB091891
:10375000A8F80420DFF8D480D8F80080DFF8C490FF
:10376000B9F8009008EB0918A8F8063024B105FA5A
:1037700000F84FEA480801E005FA00F81FFA88F956
:10378000DFF8A880D8F80080DFF898A0BAF800A089
:1037900008EB0A18A8F808902CB106FA00F84FEACE
:1037A000480802E03CE006FA00F8DFF88090D9F81B
:1037B0000090DFF870A0BAF800A009EB0A19A9F888
:1037C0000A80DFF86880D8F80080DFF85890B9F8F0
:1037D000009008EB091888F80E40DFF85080D8F800
:1037E0000080DFF84090B9F8009008EB091888F8DD
:1037F0000FC0DFF83880D8F80080DFF82890B9F8DB
:10380000009008EB091888F80D00DFF81880B8F868
:10381000008008F10108DFF80C90A9F8008000BFD3
:1038200000BF6EE708000020060000200000002016
:103830002DE9F04307ADE0CD0A9CDFF820C1BCF8CC
:1038400000C0DFF81C81B8F80080C4457DDADFF8DD
:1038500014C1DCF800C0DFF80481B8F800800CEB7C
:10386000081CCCF800004FF0020CDFF8F880D8F804
:103870000080DFF8E890B9F8009008EB091888F8A4
:103880000CC0DFF8E0C0DCF800C0DFF8D080B8F88A
:1038900000800CEB081CACF80420DFF8C8C0DCF892
:1038A00000C0DFF8B880B8F800800CEB081CACF85A
:1038B000063014B14FEA051C01E04FEAC50CDFF8F1
:1038C000A480D8F80080DFF89490B9F8009008EB55
:1038D0000918A8F808C014B14FEA460C00E0B44635
:1038E000DFF88080D8F80080DFF87090B9F8009099
:1038F00008EB0918A8F80AC0DFF868C0DCF800C0B7
:10390000DFF85880B8F800800CEB081C8CF80D101C
:10391000DFF850C0DCF800C0DFF84080B8F8008065
:103920000CEB081C8CF80E40DFF838C0DCF800C047
:10393000DFF82880B8F800800CEB081C8CF80F70BA
:10394000DFF818C0BCF800C000E005E00CF1010C85
:10395000DFF80880A8F800C0BDE8F0830800002068
:1039600006000020000000202DE9F04307ADE0CD67
:103970000A9CDFF824C1BCF800C0DFF82081B8F849
:103980000080C4457EDADFF818C1DCF800C0DFF83B
:103990000881B8F800800CEB081CCCF800004FF050
:1039A000030CDFF8FC80D8F80080DFF8EC90B9F861
:1039B000009008EB091888F80CC0DFF8E4C0DCF8C8
:1039C00000C0DFF8D480B8F800800CEB081CACF81D
:1039D0000420DFF8CCC0DCF800C0DFF8BC80B8F809
:1039E00000800CEB081CACF8063014B14FEA450C13
:1039F00000E0AC46DFF8A880D8F80080DFF89890A7
:103A0000B9F8009008EB0918A8F808C014B14FEAFB
:103A1000460C00E0B4461FFA8CF8DFF884C0DCF8EE
:103A200000C0DFF87490B9F800900CEB091CACF8FA
:103A30000A80DFF86CC0DCF800C0DFF85C80B8F802
:103A400000800CEB081C8CF80E40DFF854C0DCF84A
:103A500000C0DFF84480B8F800800CEB081C8CF83C
:103A60000F70DFF83CC0DCF800C0DFF82C80B8F83D
:103A700000800CEB081C8CF80D10DFF81CC0BCF8A3
:103A800000C000E005E00CF1010CDFF80C80A8F8A4
:103A900000C0BDE8F0830000080000200600002000
:103AA0000000002000200149088070470800002025
:103AB0002DE9F34F8DB08946F848007830B1F848C9
:103AC00002784FF420714846FCF7EFFB0020FCE33E
:103AD000F449096801EB0015B5F906200D998A42F1
:103AE0007BDCB5F906106A890A440D998A4274DDB7
:103AF000E97BC1F340010091A97B09B1012100E0FC
:103B000000210191E97B01F0010191B1019941B1DD
:103B10006A89B5F906300D99C91A511A491E49101A
:103B200013E06A89B5F906300D99C91A511A491E70
:103B30000BE0019929B1B5F906200D99891A4910B0
:103B400003E0B5F906200D99891A0891009911B181
:103B50004FF0FF3100E00121C9B20491B5F90440F2
:103B6000297B07296FD2DFE801F06E0484F1F0EFC2
:103B7000EE00019911B12989491000E02989884690
:103B800029680291009931B1089901FB0881491E09
:103B9000029A114403E0089A029902FB08110F46A9
:103BA0000199A1B3002C19DB2989C1F5A071A142AB
:103BB00014DD00260EE0397841B13978BA4A12682E
:103BC00032F8111001EB014149F81410A41C0499BA
:103BD0000F44761C4645EEDB4AE07BE3002613E00B
:103BE000397869B1002C0BDBB4F5A07F08DA39789D
:103BF000AD4A126832F8111001EB014149F8141076
:103C0000A41C04990F44761C4645E9DB30E0FFE72D
:103C1000002C16DB2989C1F5A071A14211DD002617
:103C20000CE0397831B139789F4A126832F81110B6
:103C300029F81410641C04990F44761C4645F0DBE7
:103C400016E0002612E067E2397859B1002C09DB52
:103C5000B4F5A07F06DA3978934A126832F8111069
:103C600029F81410641C04990F44761C4645EBDBBC
:103C70002FE3697B8C4A126832F811B029680291EF
:103C80000199002979D029894FEA2118089901FB67
:103C900008F10691002C41DB2989C1F5A071A142F0
:103CA0003CDD002637E0009931B106994144891B7B
:103CB000491E029A515C03E006998A190299895CAF
:103CC0000391009999B14FF0070A0CE0802141FA65
:103CD0000AF1039A114019B10BEB0B4149F814108A
:103CE000A41CAAF1010ABAF1000FEFDA12E04FF0BA
:103CF000000A0CE0802141FA0AF1039A114019B13F
:103D00000BEB0B4149F81410A41C0AF1010ABAF19B
:103D1000080FEFDB761C4645C5DBDDE0002646E0FC
:103D2000009931B106994144891B491E029A515CA0
:103D300003E006998A190299895C03910099E9B117
:103D40004FF0070A15E00EE2E7E134E1C5E0002C90
:103D50000CDBB4F5A07F09DA802141FA0AF1039A5D
:103D6000114019B10BEB0B4149F81410A41CAAF136
:103D7000010ABAF1000FEADA18E01BE04FF0000A7E
:103D800011E0002C0CDBB4F5A07F09DA802141FAA8
:103D90000AF1039A114019B10BEB0B4149F81410C9
:103DA000A41C0AF1010ABAF1080FEADB761C4645A9
:103DB000B6DB91E029894FEAE108089901FB08F197
:103DC0000691002C3DDB2989C1F5A071A14238DDA7
:103DD000002633E0009931B106994144891B491E00
:103DE000029A515C03E006998A190299895C039151
:103DF000009989B14FF0070A0AE0802141FA0AF1DF
:103E0000039A114009B129F814B0641CAAF1010AFF
:103E1000BAF1000FF1DA10E04FF0000A0AE0802159
:103E200041FA0AF1039A114009B129F814B0641C4F
:103E30000AF1010ABAF1080FF1DB761C4645C9DB2D
:103E40004AE0002646E0009931B106994144891BB9
:103E5000491E029A515C03E006998A190299895C0D
:103E600003910099B1B14FF0070A0FE0002C0ADB73
:103E7000B4F5A07F07DA802141FA0AF1039A1140D4
:103E800009B129F814B0641CAAF1010ABAF1000FB3
:103E9000ECDA1EE04FF0000A18E000000A000020F3
:103EA00004000020000000200C000020002C0ADB91
:103EB000B4F5A07F07DA802141FA0AF1039A114094
:103EC00009B129F814B0641C0AF1010ABAF1080F0B
:103ED000ECDB761C4645B6DBFBE1019911B1298983
:103EE000491000E02989884629680291009931B17A
:103EF000089901FB0881491E029A114403E0089ABF
:103F0000029902FB08110F46697BF74A126832F8E2
:103F100011B0019949B3002C13DB2989C1F5A071B7
:103F2000A1420EDD002609E0397819B10BEB0B41F7
:103F300049F81410A41C04990F44761C4645F3DB81
:103F400038E000260EE0397841B1002C06DBB4F5EC
:103F5000A07F03DA0BEB0B4149F81410A41C049961
:103F60000F44761C4645EEDB24E0002C11DB29894A
:103F7000C1F5A071A1420CDD002607E0397809B136
:103F800029F814B0641C04990F44761C4645F5DBEF
:103F900010E000260CE0397831B1002C04DBB4F5D8
:103FA000A07F01DA29F814B0641C04990F44761C30
:103FB0004645F0DB8DE1019921B129896A7B1141E8
:103FC000491002E029896A7B11410A916A7B01212B
:103FD00001FA02F8089991FBF8F10991089991FB0F
:103FE000F8F208FB12110891089901FB08F10691FB
:103FF000DDE90912514305914FEA48010B91296807
:104000000C910199F1B30021079140E00C990CC982
:104010000599595C52F8212006995718002C17DB96
:104020000B99C1F5A071A14212DD00260DE039788F
:1040300041B13978AC4A126832F811B00BEB0B4140
:1040400049F814107F1CA41C761C4645EFDB16E0D3
:10405000002612E0397869B1002C0BDBB4F5A07FA3
:1040600008DA3978A04A126832F811B00BEB0B412C
:1040700049F814107F1CA41C761C4645EADB059900
:10408000491C00E008E005910799491C07910A9A2C
:1040900007999142BADB3FE00021079138E02A6896
:1040A000059952F8212006995718002C15DB0B9919
:1040B000C1F5A071A14210DD00260BE0397831B1C5
:1040C0003978894A126832F8111029F814107F1CC7
:1040D000641C761C4645F1DB14E0002610E03978BC
:1040E00059B1002C09DBB4F5A07F06DA39787E4A95
:1040F000126832F8111029F814107F1C641C761C09
:104100004645ECDB0599491C05910799491C079127
:104110000A9A07999142C2DBDBE0B5F90440B5F990
:1041200004102A8911440791002C00DA0024B4F508
:10413000A07F00DBCDE00799002900DAC9E00799EC
:10414000B1F5A07F02DB4FF4A0710791697B664A4D
:10415000126832F811B002E029F814B0641C079913
:104160008C42F9DBB5E0697B5F4A126832F811B026
:10417000B5F90440B5F904102A8911440791019951
:10418000A1B3B5F906200D998A4215D0B5F90610EC
:10419000491C0D9A91420FD0B5F906106A89114455
:1041A000491E0D9A914207D0B5F906106A8911444B
:1041B000891E0D9A91421AD1002C00DA0024B4F520
:1041C000A07F00DB85E00799002900DA81E00799EC
:1041D000B1F5A07F02DB4FF4A071079102E029F84E
:1041E00014B0641C07998C42F9DB72E02EE0B5F93B
:1041F0000440B5F904102A891144491E0791002C86
:1042000004DBB4F5A07F01DA29F814B0641C002C9B
:1042100004DBB4F5A07F01DA29F814B0079900296E
:1042200006DB0799B1F5A07F02DA079929F811B0EA
:104230000799491E0791079900294ADB0799B1F5AB
:10424000A07F46DA079929F811B042E0B5F90620B7
:104250000D998A4207D0B5F906106A891144491EA2
:104260000D9A914219D1002C00DA0024B4F5A07FF8
:1042700000DB2EE00799002900DA2AE00799B1F562
:10428000A07F02DB4FF4A071079102E029F814B07F
:10429000641C07998C42F9DB1AE0B5F90440B5F9C2
:1042A00004102A891144491E0791002C04DBB4F53F
:1042B000A07F01DA29F814B00799002908DB0799D3
:1042C000B1F5A07F04DA079900E005E029F811B004
:1042D00000BF00BF411C88B2044909888842FFF62C
:1042E000F7AB0FB0BDE8F08F0C00002008000020F5
:1042F00008B5FCF797FF00285ED04FF480612F4887
:10430000FCF774FF2E48FEF74FFD1020FFF736F93B
:104310000020FFF725F8FEF7D5F90546002D47D018
:1043200028A0FEF761F9FCF769FCA5B1FDF75EF97D
:1043300088B127A0FEF758F9284929A0FEF73CFAD2
:1043400028B12AA0FEF750F9FEF772F933E02BA04E
:10435000FEF74AF92FE02DA0FEF746F955B11F49A7
:104360002EA0FEF729FA28B130A0FEF73DF9FEF79E
:104370005FF920E01E211248FEF7BFFE002401264F
:1043800015E0A01904B2A02C01DD4FF0FF36002C7F
:1043900000DA01260020009004F10A0083B20A220C
:1043A000042125A0FEF714FF0548FEF767FCE8E7A7
:1043B00024A0FEF719F900BF00BFFEE784480020E3
:1043C0002C000020496E6974202E2E2E0000000063
:1043D0004C6F6164696E67202E2E2E0084140020BD
:1043E0002F64656275672E7665780000537461727C
:1043F00074696E67202E2E2E0000000044656275E1
:1044000067206661696C65640000000052756E6E1D
:10441000696E67205344202E2E2E00002F61757484
:104420006F72756E2E766578000000004175746FAE
:1044300072756E202E2E2E004E6F2070726F677276
:10444000616D00004E6F2053442063617264000070
:1044500000000000FFFFE0071F0000F88C51FFE0A4
:104460005E97939000010010004000800020010042
:10447000001E0A0A1212223E42420000007C424202
:10448000427C4242427C0000003C4240404040406E
:10449000423C0000007C424242424242427C0000D8
:1044A000003E4040407C4040407E0000007E404056
:1044B000407C404040400000003E4040404046427A
:1044C000423E000000424242427E424242420000DE
:1044D000007C101010101010107C0000007E0202F2
:1044E00002020202423C0000004244485060504830
:1044F000444200000040404040404040407E0000B8
:10450000004266665A5A42424242000000426262DB
:1045100052524A4A46460000003C4242424242420F
:10452000423C0000007C4242427C4040404000004F
:10453000003C4242424242524A3C0200007C42421B
:10454000427C605048460000003C4240403C020231
:10455000423C0000007C10101010101010100000E1
:104560000042424242424242423C00000044444433
:104570002828281010100000004444545454545467
:1045800054280000004444282810282844440000EF
:10459000004444282810101010100000007E020271
:1045A00004081020407E0000000038444464544C4D
:1045B0004438000000001030501010101078000037
:1045C0000000384404040810207C00000000384437
:1045D00004043804443800000000081828487C0807
:1045E000083C000000007C40404078040478000053
:1045F00000001C20404078444438000000007C4407
:1046000008081010202000000000384444443844BA
:104610004438000000003844443C0404443800009E
:104620000000000000007C0000000000000000000E
:1046300010107C10100000000060602000000000DE
:1046400000000000000000000000000060600000AA
:10465000000000000000000060602000000000007A
:10466000000000007E7E00000000000000207A5E56
:10467000040000000404080810102020404000003E
:10468000006060606060600060600000AC46000830
:1046900000000020840000002801000830470008C6
:1046A00084000020E44E00004401000800000000E7
:1046B00000000000000001000000000000000000F9
:1046C00000080140000801400010014000100140B6
:1046D0000010014000080140000000000000000040
:1046E00000000000000000000000000000000000CA
:1046F00000000000000000000000000000000000BA
:1047000000000000000000000000000000000000A9
:104710000000000000000000000000000000010296
:104720000304010203040607080902040608000046
:040000050800018965
:00000001FF
