:020000040800F2
:10000000E84B00208D0100089501000897010008C9
:10001000990100089B0100089D01000800000000F4
:100020000000000000000000000000009F01000828
:10003000A101000800000000A3010008A5010008BC
:10004000A7010008A7010008A7010008A7010008F0
:10005000A7010008A7010008A7010008A7010008E0
:10006000A7010008A7010008A7010008A7010008D0
:10007000A7010008ED050008A7010008A701000876
:10008000A7010008A7010008A7010008A7010008B0
:10009000A7010008A7010008A7010008A7010008A0
:1000A000A7010008A7010008A7010008A701000890
:1000B000CD0A0008ED0A0008410B0008A70100085E
:1000C000A7010008A7010008A7010008A701000870
:1000D000A7010008A7010008A7010008A701000860
:1000E000A7010008A7010008A701000800F002F816
:1000F00000F03CF80AA090E8000C82448344AAF186
:100100000107DA4501D100F031F8AFF2090EBAE883
:100110000F0013F0010F18BFFB1A43F0010318473B
:10012000243E0000443E0000103A24BF78C878C145
:10013000FAD8520724BF30C830C144BF04680C60ED
:10014000704700000023002400250026103A28BF35
:1001500078C1FBD8520728BF30C148BF0B60704739
:100160001FB500F0D3F81FBD10B510BD00F039F970
:100170001146FFF7F5FF03F0E9FC00F057F903B46F
:10018000FFF7F2FF03BC00F05BF90000094880476D
:1001900009480047FEE7FEE7FEE7FEE7FEE7FEE769
:1001A000FEE7FEE7FEE7FEE704480549054A064B81
:1001B000704700006D0A0008ED000008E8450020C7
:1001C000E84B0020E8470020E847002010B5431C1A
:1001D00002E010F8011B71B18107FAD14FF0013232
:1001E00002C88C1A8C4314EAC211F9D0C01A0A064C
:1001F00003D0C01E10BDC01A10BD0A0401D0801E5D
:1002000010BD0902FCD0401E10BD032A40F2308010
:1002100010F0030C00F0158011F8013BBCF1020F47
:10022000624498BF11F801CB00F8013B38BF11F8C8
:10023000013BA2F1040298BF00F801CB38BF00F8DF
:10024000013B11F0030300F07380083AC0F008800E
:1002500051F8043B083A51F804CBA0E80810F5E740
:10026000121D5CBF51F8043B40F8043BAFF3008023
:10027000D20724BF11F8013B11F801CB48BF11F898
:10028000012B24BF00F8013B00F801CB48BF00F868
:10029000012B704701B5FFF7B8FF01BD01F0FF0367
:1002A000114601B543EA032242EA024200F00BF88C
:1002B00001BD02F0FF0343EA032242EA024200F0DA
:1002C00002B84FF000020429C0F0128010F0030CB5
:1002D00000F06280CCF1040CBCF1020F18BF00F8F2
:1002E000012BA8BF20F8022BA1EB0C0100F054B8A1
:1002F0005FEAC17C24BF00F8012B00F8012B48BF46
:1003000000F8012B704770477047704770B5064C76
:100310007C44064D7D4403E0206820448047241D32
:10032000AC42F9D170BD0000503C0000503C0000D0
:1003300010B5203AC0F00B80B1E81850203AA0E880
:100340001850B1E81850A0E81850BFF4F5AF5FEAB4
:10035000027C24BFB1E81850A0E8185044BF18C967
:1003600018C0BDE810405FEA827C24BF51F8043B0E
:1003700040F8043B08BF7047D20728BF31F8023B62
:1003800048BF11F8012B28BF20F8023B48BF00F8F6
:10039000012B70474FF0000200B513469446964675
:1003A000203922BFA0E80C50A0E80C50B1F1200188
:1003B000BFF4F7AF090728BFA0E80C5048BF0CC036
:1003C0005DF804EB890028BF40F8042B08BF704794
:1003D00048BF20F8022B11F0804F18BF00F8012B06
:1003E0007047754600F032F8AE4605006946534640
:1003F00020F00700854618B020B5FFF7D5FEBDE810
:1004000020404FF000064FF000074FF000084FF07B
:10041000000B21F00701AC46ACE8C009ACE8C0090C
:10042000ACE8C009ACE8C0098D46704710B5044679
:10043000AFF300802046BDE81040FFF7A0BE0000EB
:1004400001491820ABBEFEE72600020000487047B5
:1004500084450020704721B1426842F480624260C6
:1004600003E0426822F480624260704721B18268F2
:1004700042F00102826003E0826822F001028260A1
:1004800070470A460021816821F4E04111438160F0
:100490007047014600208A6802F004020AB1012078
:1004A00000E00020704708B502460020009000924E
:1004B00001F12800009B184400900098006880B269
:1004C00008BD014600208A6802F008020AB1012036
:1004D00000E000207047000030B5024600200023F5
:1004E00050680F4C20400D790C6844EA05242043E5
:1004F000506090680B4C2040D1E902542C434D7958
:1005000044EA450420439060D06A20F470000C7CDB
:10051000641EE4B2234340EA0350D06230BD0000C1
:10052000FFFEF0FFFDF7F1FFF0B504461546002091
:1005300000220026092911DDE068A1F10A0707EB76
:10054000470C072707FA0CF29043A1F10A0707EBC3
:10055000470703FA07F21043E0600CE0206901EB63
:10056000410C072707FA0CF2904301EB410703FA0D
:1005700007F210432061A06BC0F30156EF1C06F197
:10058000010CA7EB0C0707EB870C1F2707FA0CF2EF
:100590009043EF1C06F1010CA7EB0C0707EB870754
:1005A00001FA07F21043A063F0BD10B50A4600211E
:1005B0000023816B21F44011531E41EA03518163F2
:1005C00010BD816841F008018160704721B18268E7
:1005D00042F40212826003E0826822F40212826016
:1005E0007047816841F004018160704710B50122B5
:1005F0000221074800F0DEF80021064800F01CF850
:100600004FF4007000F00AF801200349087010BD93
:1006100000080140300002400000002000F080513E
:1006200011B10349086001E00249486070470000C9
:10063000040402400000024021B1026842F00102BD
:10064000026004E002684FF6FE731A4002607047D1
:100650001AB103680B43036002E003688B43036035
:10066000704710B50022026847F6F0739A430C6A8F
:100670008B6823430C6923434C6923438C692343D0
:10068000CC6923434C6A23438C6A23431A43026098
:10069000CB6843600B6883604B68C36010BD2DE975
:1006A000F0410246002500260020002300240027F8
:1006B00091F803C00CF00F0591F803C00CF0100C7A
:1006C000BCF1000F03D091F802C04CEA050591F887
:1006D00000C0BCF1000F31D0146800202BE04FF0B7
:1006E000010C0CFA00F3B1F800C00CEA03069E42BC
:1006F00020D183004FF00F0C0CFA03F7BC4305FA2E
:1007000003FC4CEA040491F803C0BCF1280F06D1A5
:100710004FF0010C0CFA00FCC2F814C00AE091F88A
:1007200003C0BCF1480F05D14FF0010C0CFA00FCDE
:10073000C2F810C0401C0828D1D31460B1F800C022
:10074000BCF1FF0F34DD546800202EE000F1080CEE
:100750004FF0010808FA0CF3B1F800C00CEA0306E8
:100760009E4221D183004FF00F0C0CFA03F7BC43DB
:1007700005FA03FC4CEA040491F803C0BCF1280F0D
:1007800005D100F1080C08FA0CF8C2F8148091F8B1
:1007900003C0BCF1480F07D100F1080C4FF001086D
:1007A00008FA0CF8C2F81080401C0828CED3546018
:1007B000BDE8F0810AB1016100E0416170470000CD
:1007C00001460020034A506820F44040084350602E
:1007D000704700000010024029B1064A52690243E6
:1007E000044B5A6104E0034A52698243014B5A6147
:1007F000704700000010024029B1064AD269024346
:10080000044BDA6104E0034AD2698243014BDA61A6
:10081000704700000010024029B1064A9269024365
:10082000044B9A6104E0034A92698243014B9A6146
:10083000704700000010024030B500210022002463
:1008400000232D4D6D6805F00C0121B1042905D060
:10085000082923D105E0294D056022E0274D0560D8
:100860001FE0254D6D6805F47012234D6D6805F489
:100870008034022505EB92421CB9214D5543056099
:100880000BE01D4D6D6805F400351DB11C4D554341
:10089000056002E0194D5543056002E0174D056003
:1008A00000BF00BF144D6D6805F0F0010909154D3A
:1008B0006B5C0568DD4045600F4D6D6805F4E061D7
:1008C000090A104D6B5C4568DD4085600A4D6D6816
:1008D00005F46051C90A0B4D6B5C4568DD40C5608D
:1008E000054D6D6805F44041890B074D6B5CC5688B
:1008F000B5FBF3F5056130BD0010024000127A002F
:1009000000093D006C0000207C00002021B102881D
:1009100042F04002028004E002884FF6BF731A40A2
:10092000028070471AB183880B43838002E083887A
:100930008B43838070470246002013890B400BB124
:10094000012000E00020704710B50022028802F468
:1009500041520B884C8823438C882343CC88234303
:100960000C8923434C8923438C892343CC8923431B
:100970001A430280838B4FF2FF74234083830B8AD8
:10098000038210BD10B500F001F810BD0CB50020B9
:10099000019000903348006840F48030314908608D
:1009A00000BF3048006800F4003000900198401CFF
:1009B0000190009818B90198B0F5A06FF1D12948BD
:1009C000006800F4003010B10120009001E0002028
:1009D00000900098012843D12348006840F010009F
:1009E000214908600846006820F0030008600846B6
:1009F000006840F0020008601A48406819494860E1
:100A00000846406848600846406840F48060486096
:100A10000846406820F47C1048600846406840F46E
:100A2000641048600846006840F08070086000BFAD
:100A30000C48006800F000700028F9D009484068B0
:100A400020F00300074948600846406840F0020073
:100A5000486000BF0348406800F00C000828F9D146
:100A60000CBD0000001002400020024010B51348E9
:100A7000006840F0010011490860084640681049CC
:100A800008400E494860084600680E4908400B4976
:100A900008600846006820F4802008600846406826
:100AA00020F4FE0048604FF41F008860FFF76AFFE3
:100AB0004FF000600449086010BD000000100240C3
:100AC0000000FFF8FFFFF6FE08ED00E04FF0804069
:100AD000008A20F001004FF080410882024800683F
:100AE000401C0149086070471400002010B50E48F2
:100AF000006820F4FF500D49097840EA41100A4986
:100B000008600B48006880470A49097808410A498B
:100B100009788840054908700848008820F00100DD
:100B20000649088010BD00000C0C01406400002044
:100B300060000020660000206500002010040040D6
:100B40000448008820F00100024908800120024981
:100B500008707047100800400100002070B588B090
:100B600006460C460E480068B8B100231A4601A993
:100B7000304600F0EFF90546681C10B9002008B0B7
:100B800070BD656000206081208101986061002057
:100B9000A0617220A0740120F1E70020EFE70000BF
:100BA0003C00002001460B480068425C094803688D
:100BB000481C185C02EB002206480368881C185C7D
:100BC00002EB004203480368C81C185C02EB00609B
:100BD000704700003C00002010B50B0E094A146855
:100BE000C21CA354C1F30743064A1468821CA354D1
:100BF000C1F30723034A1468421CA354014B1B682A
:100C0000195410BD3C0000200020014908607047C5
:100C10001400002010B50448002101600171052175
:100C200000F004F810BD00006700002030B589B066
:100C300004460D4669460DA0FFF790FFA0B10422BF
:100C400008A9684600F090FFBDF92200A84201D92A
:100C5000284601E0BDF9220002462146684600F020
:100C600083FF012009B030BD0020FBE72F636F72C6
:100C7000652E63666700000000B589B069460EA066
:100C800000F022F8A8B10120ADF820000520ADF851
:100C90002200042208A9684601F0B2FA0522094997
:100CA000684601F0ADFA684601F094FA012009B0F7
:100CB00000BD0020FBE700002F636F72652E6366A6
:100CC00067000000670000202DE9F04395B08046E2
:100CD0000E466948006800287ED04046FFF776FA45
:100CE000401E00EB080400E0641E444505D0207857
:100CF0002F2802D020780028F6D120782F2800D184
:100D0000641C2046FFF762FA18B9002015B0BDE850
:100D1000F083A4EB0800402801DB0020F6E7A4EBF9
:100D2000080241460AA8FFF770FA0020A4EB080168
:100D30000AAA50542022082113A8FFF7BAFA202249
:100D4000032112A8FFF7B5FA00250AE0605D10B193
:100D5000605D2E2800D106E0605D13A94855681C2F
:100D6000C5B2082DF2DB00BF2046FFF72FFAC5B24F
:100D700001E0681EC5B2002D02DD605D2E28F8D1AD
:100D8000605D2E2818D1681CC5B22046FFF71EFAF8
:100D9000401B00F0FF09B9F1030F05DA61194A465B
:100DA00012A8FFF732FA06E060190188ADF8481082
:100DB00080788DF84A0000BF01AB02AA03A9404623
:100DC00000F0C8F80746781CC0B900231A4603A9EA
:100DD0000AA800F0BFF800E04CE00746781C08B90C
:100DE000002093E701AA02A9384600F089FD00F02F
:100DF00011FD0746781C48B9002087E7384600F007
:100E0000D7FD6FF07041384600F052FD029800F0B7
:100E100065F919480068019908441399016014990B
:100E2000416015480168019808300844BDF8481031
:100E300001809DF84A10817039B201981A3001F092
:100E40006DFC39140198143001F068FC029800F030
:100E500023FB08B9002059E7376077600298F060FB
:100E60000198308200203081708170617720B074E9
:100E700001204BE7002049E73C00002070B5044604
:100E80000D46052D01D2284600E0052002462146E8
:100E90000248FFF7BAF9012070BD0000670000208A
:100EA00001460878562816D14878452813D1887805
:100EB000452810D1C87858280DD1D1E90420104414
:100EC000B0F5D03F03D8C868B0F5804F01D90020F5
:100ED00070470120FCE70020FAE7000000B5024659
:100EE000002119E00E48006940F002000C4B186127
:100EF000501858611846006940F04000186100BF62
:100F000000F01EF80028FBD00548006920F0020020
:100F1000034B186101F58061B1F5D03FE2DB00BD04
:100F20000020024000BF011EA0F10100FBD170476C
:100F300010B5024801F0CAFC10BD000030000020CE
:100F40000348C06800F0010080F001007047000015
:100F5000002002402DE9FF4F8DB00546884600264F
:100F6000701E00905948006800287DD028782F28EE
:100F700006D157480068009001265648D0F800A0D6
:100F800092E04FF0000909E0A85D05A901F8090009
:100F9000701C06B209F101000FFA80F9A85D10B1CA
:100FA000A85D2F28F0D1002005A901F8090005A8A7
:100FB000FFF70CF9002876D00027002457E00AEB51
:100FC000070000F08BF841480068005DE5282CD050
:100FD0003E480068005D052827D03C480068005D59
:100FE0002E2822D039480068005DF0B137480168EA
:100FF00004F10B00085C0F2817D034490968081960
:1010000001A900F0EAFC05A901A800F03AFD60B1D1
:1010100004F11A0001F074FB834604F1140001F09E
:101020006FFB0BEB0040009022E028480068005D59
:1010300020B94FF0FF3011B0BDE8F08F2034B4F587
:10104000007F14D300247F1C2348007887420ED3EE
:101050000027009800F012FC00906FF0704100989B
:10106000884204D1601E00E023E0009000E0A6E783
:1010700000BFA85D2F2806D101E0701C06B2A85D54
:101080002F28FAD00AE0A85D40B9B8F1000F05D0CA
:1010900004F11C00FFF786FDC8F8000000208DF861
:1010A000140001E0FFE703E0A85D00287FF469AFCA
:1010B00000BF0F9818B10AEB07010F980160109854
:1010C00008B1109804600098B5E700003C000020CB
:1010D000580000205C00002048000020F0B50546C4
:1010E00000272148006800283CD02048006885423D
:1010F00001D10120F0BD31E0002400BF01F006F96C
:10110000FF28FBD12946112000F074F9064626B1CC
:10111000052E01D100F082FD20E006E02046641C8F
:101120001349884200D900E000BF01F0EFF8FE2823
:10113000F4D1002405E001F0E9F80B4909680855ED
:10114000641CB4F5007FF6D301F0E0F801F0DEF89E
:1011500001F0DCF8054805600120CBE738467F1C2C
:101160000828C9D30020C5E73C0000204400002027
:10117000FEFF0F0010B500210220FFF73DFB1D20F0
:10118000002817DB00F01F02012191400A4A4309A1
:1011900042F8231000BF00BF00BFBFF34F8F00BF56
:1011A00000BF00BF00BF00BF00BFBFF36F8F00BF15
:1011B00000BF00BF00BF10BD80E100E000B591B0EE
:1011C00001210420FFF728FB01210820FFF724FB61
:1011D00001211020FFF720FB01214802FFF71CFB33
:1011E00001218802FFF718FB4FF44040FFF7E8FAAF
:1011F00001210846FFF7F0FA03208DF8420048204D
:101200008DF8430041F20110ADF8400010A96D487F
:10121000FFF745FA4FF46040ADF8400010A96A4866
:10122000FFF73DFA03208DF8420010208DF84300AF
:101230004FF4FF50ADF8400010A96448FFF72FFAB3
:1012400000200B9001208DF830008DF831004FF414
:1012500060200D9000200E9002208DF83C000BA91C
:101260005B48FFF739F902215948FFF79EF901233E
:101270001A4608215648FFF757F90123022209218F
:101280005348FFF751F94FF4E0415148FFF7F9F89F
:1012900001214F48FFF7EAF84D48FFF792F900BFE8
:1012A0004B48FFF70EF90028FAD14948FFF799F9A2
:1012B00000BF4748FFF7EDF80028FAD10121444864
:1012C000FFF7C9F801214248FFF780F906A8FFF7A8
:1012D000B3FA01210846FFF78FFA42F2107106981F
:1012E000B0FBF1F0401E890608850A20888540077A
:1012F000808940F0010088810846008840F00100A4
:1013000008801C20002809DB00F01F020121914009
:101310004209920002F1E022C2F8001100BF01214F
:101320000803FFF779FA01218803FFF765FA18200F
:101330008DF84300E020ADF8400010A92148FFF7E8
:10134000AEF90020ADF804004FF48270ADF806004D
:101350000020ADF80800ADF80A00ADF80C004FF41D
:101360000070ADF80E000020ADF81000ADF81200CE
:1013700001A91848FFF7E8FA01211648FFF7C6FA55
:1013800018208DF843004FF42040ADF8400010A91C
:101390000E48FFF784F948208DF843004FF4804051
:1013A000ADF8400010A90948FFF779F901A90A48EA
:1013B000FFF7CAFA01210848FFF7A8FA012011B087
:1013C00000BD00000008014000100140000C014079
:1013D0000024014000300140003800400248034929
:1013E0004860034848607047230167450020024079
:1013F000AB89EFCD70B502460B4600262548007834
:1014000020B9112A01D0182A00D15B0242F0400015
:1014100000F082FF180E00F07FFFC3F3074000F0DA
:101420007BFFC3F3072000F077FFD8B200F074FF12
:10143000082A01D1872100E09521084600F06CFFC1
:1014400007E03046711C8EB24FF6FE71884200DD17
:1014500004E000F05BFF0446FF28F2D000BFA4B90F
:101460003A2A12D100F052FF054605F0400018B1AB
:1014700001200849087002E000200649087000F0C9
:1014800045FF00F043FF00F041FF00F03FFF204622
:1014900070BD0000400000202DE9F04107463048B3
:1014A0000068002859D04FF0000800200446054687
:1014B0000FE02B480068005D80EA2520C6B286EA6E
:1014C0002616280280EA063080EA4610704085B26F
:1014D000641CB4F5007FECD339E000BF00F016FFC8
:1014E000FF28FBD139461820FFF784FF10B100F028
:1014F00095FB2CE000BF00F009FFFF28FBD1FE2088
:1015000000F00AFF002405E015490968085D00F0B5
:1015100003FF641CB4F5007FF6D3281200F0FCFE34
:10152000E8B200F0F9FE002400BF00F0EFFE00F08A
:101530001F00052804D02046641C0A498842F4D3C1
:101540000848844200D302E00120BDE8F081404613
:1015500008F101080828C0D300BF0020F5E700000B
:101560003C000020FEFF0F0000B589B00D48FFF7DA
:1015700097FCA8B101A90CA0FFF7A6FB10B90020A9
:1015800009B000BD4FF4D032064901A800F038FE82
:1015900008B90020F4E701A800F01CFE0120EFE7E5
:1015A0000020EDE7006000082F64656275672E7605
:1015B0006578000070B50546284600F01DF906461E
:1015C0004FF4007107480068FEF77BFE002403E03B
:1015D0003019FFF761FF641C034800788442F7DB91
:1015E00070BD00003C000020480000202DE9F047BD
:1015F0000746884614461E46A8F10108B8F10D0FAB
:1016000002DA0020BDE8F08747480068002877D05C
:101610002068401C0028FAD082E0E588E08820306D
:10162000E080E088B0F5007F0EDB0020E080A0883D
:10163000401CA080A0883D490978884204DB4FF017
:10164000FF3020600020DDE7206800F0D5F8A18899
:1016500000EB010A5046FFF741FD33480068405D4A
:1016600048B131480068405D202804D02E48006809
:10167000405DFF2800D153E02B480068405DE5281D
:1016800000D14DE02848016805F10B00085C0F28E7
:1016900045D0254909684819394600F09EF9384671
:1016A000FEF794FD00F0FF0905F11C00FFF77AFA40
:1016B000306005F1140001F023F83083002030740D
:1016C00005F10B0001F014F800F0020018B1307CB5
:1016D00040F00100307405F10B0001F009F800F052
:1016E000040018B1307C40F003003074A9F103010C
:1016F000C8190FA100F0C5F918B1012070740CE0F1
:101700000FE005F10B0000F0F3FF00F0100010B146
:101710000220707401E000207074012072E700BFA5
:101720007BE700206EE700003C000020480000201E
:101730005645580070B586B004460D461646B4F5B9
:101740007A7F03DB4AF64440844202DD002006B083
:1017500070BD082D08DAC5F1080040B221490870B3
:1017600000202149087007E0A5F1080040B21E4999
:10177000087000201B4908701C48066001A8FFF78C
:101780005BF801210220FFF737F8194890FBF4F0CD
:10179000401E1849088016490198B0FBF1F0154920
:1017A000091D088013481C38008840F001001149C9
:1017B0001C3908800F482838008840F001000D4986
:1017C000283908801D20002809DB00F01F020121B4
:1017D00091404209920002F1E022C2F8001100BFDC
:1017E0000120B4E7650000206600002060000020B2
:1017F00040420F00280400400146881E034A127828
:10180000034B1B6800FB02307047000048000020BB
:101810005C00002070B511480568002600241BE01C
:101820002846FFF75BFC2046FFF7BCF968B96FF06C
:1018300070412046FFF7D0F92846FFF72DFE10B97A
:101840004FF0FF3070BD3046FCE7761C241DB4F528
:10185000007F01D36D1C0024E2E70000500000204F
:10186000002809DB00F01F0201219140420992008B
:1018700002F1E022C2F800117047000070B5044682
:101880002046E11704EB5161CD11E11704EB5161E2
:10189000C911A4EBC1118E00044909684819FFF76A
:1018A0001DFC3046FFF77EF970BD0000500000209F
:1018B000F0B504460E462046E11704EB5161CD1108
:1018C000E11704EB5161C911A4EBC1118F00074965
:1018D00009684819FFF702FC31463846FFF77CF9E2
:1018E000024909684819FFF7D7FDF0BD50000020F4
:1018F000024908680021014A116070471400002065
:101900002DE9F04781460E4617464846FFF774FF1B
:1019100080460025002427E008EB0500FFF7DEFBEA
:1019200015480068005D20B113480068005DE52897
:1019300000D11AE02034B4F5007F15DB6D1C0024C3
:101940000E48007885420FDB0025FFF763FF8246D3
:101950005046FFF72FFE51464846FFF7A9FF6FF0AC
:1019600070415046FFF7A4FFD6E700BF08EB050023
:1019700030603C60BDE8F0873C000020480000205B
:1019800010B514210348FEF78EFDA0F5006000B2EB
:1019900010BD00000024014010B518210348FEF7D7
:1019A00082FDA0F5006000B210BD000000240140DF
:1019B00030B505460EE02846FFF760FF04460021DB
:1019C0002846FFF775FF6FF07040844200D004B9DD
:1019D00001E02546EFE700BF30BD10B50246002309
:1019E00002E0D45CCC545B1C082BFADB082005E039
:1019F000431ED8B20B5C202B00D001E00028F7DC9E
:101A000000BF431CD8B2137A202B1AD02E230B54BC
:101A1000431CD8B2002306E003F10804145D0C5403
:101A2000441CE0B25B1C032BF6DB05E0431ED8B27E
:101A30000B5C202B00D001E00028F7DC00BF431C2A
:101A4000D8B200230B5410BD024605E0107808B947
:101A500001207047521C491C10780B789842F5D031
:101A60000020F6E770B504460D462946204600F0F2
:101A7000F5FC20B100F03EFC08B1012070BD002053
:101A8000FCE710B502460B4605E0107808B90120C6
:101A900010BD521C5B1C107800F058FC04461878EE
:101AA00000F054FC8442F0D00020F1E72DE9F04131
:101AB00004460D46271E00DA6442002600BF0A20B5
:101AC00094FBF0F100FB11403030C2B23046761C7E
:101AD0002A540A2094FBF0F0041EF0DC002F03DAF5
:101AE0002D223046761C2A540020A855284600F0A6
:101AF000EDFBBDE8F08170B50024002519E0FFF78B
:101B00003FFFA8400444FFF747FFA840044400F00B
:101B10009FFC04EB400404F0004040B904F40000D2
:101B200028B904F4004010B904F0800000B1640842
:101B30006D1C202DE3DB204670BD70B505460C46BC
:101B40002046FEF743FB02280CD92078632809D1F0
:101B500060782E2806D1A11C2846FFF775FF08B132
:101B6000012070BD0020FCE72DE9F04704460D463A
:101B700090462848006800284AD0A07C722847D1A7
:101B80006068FFF739FE81462E46A769D4F814A095
:101B900035E0574500D337E07F1C218901EB090070
:101BA000FFF79CFA10B90020BDE8F0876089194959
:101BB0000968085C3070761C6089401C608160890F
:101BC000B0F5007F1BDB002060812089401C208154
:101BD000208911490978884211DB00202081606842
:101BE000FFF74CFE60606FF070416068884202DB76
:101BF0000020606108E06068FFF7FEFD8146B8F1F3
:101C00000000A8F10108C4D100BFA761701BCBE799
:101C10000020C9E73C00002048000020F0B5022762
:101C20000024002502E000F071FB6D1C282DFAD382
:101C300005E02046641C402801D90120F0BD0021A8
:101C40000846FFF7D7FB0128F3D100F05FFB00F057
:101C50005DFB002405E02046641CFE2801D9012715
:101C600006E04FF4D5710820FFF7C4FB0128F2D13C
:101C700000BF002400BF00213720FFF7BBFB064652
:101C80004FF080412920FFF7B5FB0646641C4FF654
:101C9000FE70844201D90120D0E7002EEBD1002450
:101CA00000200A490870022F0ED106E02046641C6D
:101CB00040F6FE71884200D905E000213A20FFF786
:101CC00099FB0028F2D100BF0020B7E740000020B8
:101CD00010B50446214690A0FFF72FFF08B19248A7
:101CE00010BD214691A0FFF728FF08B19348F7E700
:101CF000214693A0FFF721FF08B19548F0E7214660
:101D000094A0FFF71AFF08B19648E9E7214696A08C
:101D1000FFF713FF08B19A48E2E7214699A0FFF7C1
:101D20000CFF08B19D48DBE721469DA0FFF705FFAA
:101D300008B1A048D4E721469FA0FFF7FEFE08B1F6
:101D4000A048CDE72146A0A0FFF7F7FE08B1A048C4
:101D5000C6E721469FA0FFF7F0FE08B19F48BFE706
:101D600021469FA0FFF7E9FE08B1A048B8E7214649
:101D70009FA0FFF7E2FE08B1A148B1E72146A1A06C
:101D8000FFF7DBFE08B1A248AAE72146A1A0FFF7B2
:101D9000D4FE08B1A248A3E72146A2A0FFF7CDFEDA
:101DA00008B1A3489CE72146A2A0FFF7C6FE08B1F0
:101DB000A24895E72146A2A0FFF7BFFE08B1A448BC
:101DC0008EE72146A3A0FFF7B8FE08B1A44887E735
:101DD0002146A4A0FFF7B1FE08B1A54880E721463F
:101DE000A4A0FFF7AAFE08B1A54879E72146A5A05F
:101DF000FFF7A3FE08B1A64872E72146A5A0FFF7AA
:101E00009CFE08B1A6486BE72146A6A0FFF795FE09
:101E100008B1A84864E72146A7A0FFF78EFE08B1E5
:101E2000A9485DE72146A9A0FFF787FE08B1AA48A7
:101E300056E72146A9A0FFF780FE08B1AA484FE760
:101E40002146AAA0FFF779FE08B1AB4848E7214632
:101E5000AAA0FFF772FE08B1AB4841E72146ABA04C
:101E6000FFF76BFE08B1AE483AE72146ADA0FFF799
:101E700064FE08B1AE4833E72146AEA0FFF75DFE31
:101E800008B1AD482CE72146ACA0FFF756FE08B1DB
:101E9000AC4825E72146ACA0FFF74FFE08B1AC489F
:101EA0001EE72146ABA0FFF748FE08B1AB4817E795
:101EB0002146ABA0FFF741FE08B1AB4810E7214631
:101EC000AAA0FFF73AFE08B1AA4809E72146AAA04E
:101ED000FFF733FE08B1A94802E72146A8A0FFF7A3
:101EE0002CFE08B1A948FBE62146A9A0FFF725FE74
:101EF00008B1AA48F4E62146A9A0FFF71EFE08B1E2
:101F0000AA48EDE62146AAA0FFF717FE08B1AB48A4
:101F1000E6E60020E4E600007365744C696E6543F4
:101F20006C65617200000000612F000873657446E3
:101F3000696C6C436F6C6F7200000000452F0008E5
:101F40007365745370726974654D656D6F72790055
:101F500071300008646973706C61795370726974D0
:101F6000650000006D2F0008646973706C6179531F
:101F700070726974654269744D61736B0000000092
:101F80002D320008646973706C61795370726974E2
:101F900065427974654D61736B000000653300081C
:101FA000646973706C61795370726974654D6174A2
:101FB00072697800A1300008646973706C617954AB
:101FC00065787400A92D000873796E630000000025
:101FD000310F00087365744650530000C12100089A
:101FE00073657450616C657474650000392F000866
:101FF000676574427574746F6E5374617465000024
:10200000B52E0008676574584178697300000000B8
:10201000E12E00086765745941786973000000007B
:102020000D2F000873657446534D656D6F7279000E
:10203000652300087265616444697200B92600086E
:10204000726561644E65787446696C6500000000D5
:10205000ED1500086F70656E546F52656164000085
:102060005D0B00086F70656E546F57726974650080
:10207000C90C00087265616446696C650000000067
:10208000691B0008777269746546696C6500000019
:1020900001220008636C6F736546696C650000007F
:1020A000D5210008656E61626C65536F756E644D75
:1020B0006F6E6F003517000864697361626C655359
:1020C0006F756E6400000000751100086765744349
:1020D0006F6E6669670000004D2700086170706CC4
:1020E00079436F6E666967007D0E000873617665DF
:1020F000436F6E6669670000790C00086765745469
:10210000696D657200000000512400086765745411
:10211000696D657257697468436C6561720000008F
:10212000F1180008636C65617254696D6572000096
:10213000090C0008636D7000491A000869746F612A
:1021400000000000AD1A00086D656D736574000035
:102150009D0200086D656D637079000095020008AE
:102160007374726C656E0000CD01000872616E645C
:1021700000000000F71A000872756E00651A00086A
:102180005F5F756D6F64736933000000412700085D
:102190005F5F6D6F647369330000000045240008C1
:1021A0005F5F756469767369330000003927000842
:1021B0005F5F646976736933000000003D240008A6
:1021C00010B504462146024800F083FD10BD000012
:1021D0003000002010B50446A07C77280CD1E068C0
:1021E000FEF77CFF40B1228A02F11C006169FEF714
:1021F000F3FCE068FFF750F96520A074012010BDE2
:102200002DE9F04304460D46914626480068002813
:1022100046D0A07C772843D12E466068FFF7ECFAC1
:10222000074631E02189C819FEF758FF30786189E7
:102230001C4A12685054761C6089401C6081606999
:10224000401C60616089B0F5007F1DDB2189C819E1
:10225000FFF722F9002060812089401C208120891D
:102260001149097888420FDB00202081FFF7D2FA5C
:10227000804641466068FFF71BFBC4F80480404677
:10228000FFF7BAFA074600BFB9F10000A9F101094A
:10229000C8D12189C819FFF7FFF8701BBDE8F0838A
:1022A0000020FBE73C0000204800002038B5044631
:1022B00000200A231A4604210090204600F074FDF5
:1022C000014800F003FB38BD300000202DE9F0414B
:1022D000044600252046FDF779FF461E05E0675DB0
:1022E000A05D6055A7556D1C761EB542F7D3BDE8BD
:1022F000F081000070B504480068441C2646B047D1
:102300000546284670BD00003800002000B5FF20BB
:1023100000F002F800BD0000014600BF0A48008836
:1023200000F002000028F9D00748001D018000BF1E
:102330000548008800F001000028F9D00248001D7F
:102340000088C0B27047000008380040014661298B
:1023500004DB7A2902DCA1F1200000E00846C0B2CB
:102360007047000030B50546FFF758FC2A49087051
:102370000846007800284DD1284805600020FEF767
:10238000ADFE08B9002030BD4FF4FF7000F0B8F981
:102390004AF65521884201D00020F4E74FF4E3705B
:1023A00000F0AEF904462046FEF798FE08B900207A
:1023B000E9E70D2000F09CF9194908700C2000F0A5
:1023C00097F9184908702420FEF7ECFB16490860BD
:1023D0000E2000F095F92044144908600846006872
:1023E000114909680F4A127801FB02001049086080
:1023F0002C20FEF7D7FB0F49086008460068801EB6
:10240000074909780A4A126800FB01200A49086056
:102410000120B8E70020B6E7410000203C00002082
:1024200048000020490000204C00002050000020FF
:1024300054000020580000205C000020024692FB5F
:10244000F1F07047024692FBF1F001FB102070475B
:102450000148006870470000140000202DE9F34F88
:102460009DB00C460020039015A91D98FEF776FB41
:1024700000286FD01C220EA915A8FFF775FB0EA827
:10248000FEF70EFD0028F4D0FEF7A8FF7148FEF716
:1024900025FD7049129800EB010AD7E008220CA92B
:1024A00015A8FFF761FB9DF8300000287DD00328B8
:1024B0007CD004287BD006287AD10020019096E0B9
:1024C000102208A915A8FFF74FFBDDE90910014408
:1024D0000B9801EB001007900B980690214615A869
:1024E000079AFFF741FB002774E0099820440A99F6
:1024F000084400EB071630680899451AB08801288F
:1025000006D0022855D0032859D004285ED100E017
:1025100000BFF079012803D000201FB0BDE8F08F84
:10252000B07901283BD1B088012805D14949F0682C
:10253000084400F101080EE009982044B1680844FD
:1025400002900298FFF7C4FB8046B8F1000F02D159
:102550000020E2E77BE0605910B944F805801EE0F6
:102560003C4908980844284405900598A8EB0000C9
:10257000001FC0F316094FEA19300490C9F34A0B43
:10258000605B00F478410498084400B26053A81CD2
:10259000205A00F47840584401B2A81C2152B07966
:1025A00010B9F0685044605112E03EE032E024E09F
:1025B00049E06059F16851440844605108E06059AD
:1025C000254AF16811440844605101E00020A4E765
:1025D00000BF7F1C0698874287D31E4BDDE90802A7
:1025E000C118204600F03CF80198401C01900D995C
:1025F000019881423FF664AF27E00D9848B121462B
:1026000015A80D9AFFF7B0FA514620460D9A00F032
:1026100027F81AE00D9838B10D9880B203900E4952
:1026200015A80D9AFFF7A0FA0FE0039AC2F58041B2
:10263000094B9818FDF745FE0649149808440749C8
:102640000860012069E7002067E700BF26E7002057
:1026500063E70000006000088405002038000020C7
:1026600030B5044615461348006940F00100114A90
:102670001061002315E000BFFEF762FC0028FBD0CC
:10268000E2580A8000BFFEF75BFC0028FBD0891CE3
:10269000120C0A8000BFFEF753FC0028FBD0891CF7
:1026A0001B1DAB42E7D30348006920F00100014A3B
:1026B000106130BD0020024070B506460C460B4844
:1026C000006880B100231A4619463046FEF742FCE6
:1026D0000546681C08B9002070BD25600020A08058
:1026E000E0800120F8E70020F6E700003C00002031
:1026F000014602480068405C704700003C00002032
:10270000014605480068425C03480368481C185CA1
:1027100002EB002080B270473C00002010B5C1F3EE
:102720000723044A1468421CA354024B1B68195423
:1027300010BD00003C0000200246B2FBF1F07047E3
:102740000246B2FBF1F001FB1020704770B5054660
:102750000C46052C01D2204600E005200246034924
:102760002846FDF752FD012070BD000067000020E3
:1027700070B505460C4600BF02210648FEF7DBF89F
:102780000028F9D0012204210348FEF713F801487C
:10279000848170BD003001400008014070B50546DD
:1027A0000C4600BF02210C48FEF7C5F80028F9D0FE
:1027B000012204210948FDF7FDFF20120649888106
:1027C00000BF02210448FEF7B6F80028F9D0E0B2B5
:1027D0000149888170BD00000030014000080140BF
:1027E00070B505460E464FF4A0720021284600F051
:1027F0005FFAF0220021284600F0C4FA2C21284676
:1028000000F0A0FA012204211448FDF7D3FF0022B2
:1028100010211248FDF7CEFF002005E00021104AEC
:1028200022F81010411C88B2B0F5A07FF6DB00241E
:1028300011E000200B4908700949284600F052FABF
:1028400001210948FDF7F8FE00BF0648007800287E
:10285000FBD0601C84B2F02CEBDB70BD00080140A3
:1028600080000020000000203000024030B585B01C
:1028700005460C466846FDF7DFFF01210420FDF701
:10288000BBFF42F210710098B0FBF1F0401E0E4900
:10289000088042F2107090FBF4F0091D08800A488D
:1028A0001C38008840F0010007491C3908800648A0
:1028B0002838008840F001000349283908801E208C
:1028C000FEF7CEFF05B030BD2808004070B50546C4
:1028D000254E3146002000F0E9FDF0220021284677
:1028E00000F050FA4FF4A0720021284600F0E0F901
:1028F0002C21284600F026FA012204211B48FDF76E
:1029000059FF002210211948FDF754FF01241CE053
:102910000020174908703146284600F0E3F90121EC
:102920001448FDF789FE1048864201D1124800E0A4
:102930000D480646314620B200F0B8FD00BF0C48F5
:1029400000780028FBD0601C84B2F02CE0DD00F0A1
:10295000A7FD00BFA88818B1084800780028F9D062
:1029600000200649087070BD80000020000801406A
:10297000000000203000024002030020010000207F
:1029800038B504460020C8490870A08001210846D7
:10299000FDF722FF03208DF8020010208DF80300C0
:1029A0001E20ADF800006946C048FDF778FE012200
:1029B0001021BE48FDF7FEFE44F62060FEF7B2FA95
:1029C00000220821B948FDF7F5FE44F62060FEF725
:1029D000A9FA01220821B548FDF7ECFE44F6206073
:1029E000FEF7A0FA44F62060FEF79CFA012120468B
:1029F00000F0A8F944F62060FEF794FACB212046B7
:102A000000F0A0F939212046FFF7B2FE2C21204624
:102A1000FFF7AEFE00212046FFF7AAFE3421204634
:102A2000FFF7A6FE02212046FFF7A2FECF21204697
:102A300000F088F900212046FFF79AFEC1212046C8
:102A4000FFF796FE30212046FFF792FEE821204650
:102A500000F078F985212046FFF78AFE0021204604
:102A6000FFF786FE78212046FFF782FEEA21204606
:102A700000F068F900212046FFF77AFE0021204689
:102A8000FFF776FEED21204600F05CF96421204638
:102A9000FFF76EFE03212046FFF76AFE1221204653
:102AA000FFF766FE81212046FFF762FEF7212046F0
:102AB00000F048F920212046FFF75AFEC0212046A9
:102AC00000F040F925212046FFF752FEC1212046A3
:102AD00000F038F910212046FFF74AFEC5212046B4
:102AE00000F030F93E212046FFF742FE2821204623
:102AF000FFF73EFEC721204600F024F9862120463C
:102B0000FFF736FE3621204600F01CF9482120460A
:102B1000FFF72EFE3A21204600F014F955212046F9
:102B2000FFF726FEB121204600F00CF900212046D7
:102B3000FFF71EFE18212046FFF71AFEB621204699
:102B400000F000F908212046FFF712FE82212046FE
:102B5000FFF70EFE27212046FFF70AFE112120462F
:102B600000F0F0F82921204600F0ECF8F221204690
:102B700000F0E8F800212046FFF7FAFD2621204664
:102B800000F0E0F801212046FFF7F2FDE0212046A9
:102B900000F0D8F80F212046FFF7EAFD312120464A
:102BA000FFF7E6FD2B212046FFF7E2FD0C21204632
:102BB000FFF7DEFD0E212046FFF7DAFD0821204653
:102BC000FFF7D6FD4E212046FFF7D2FDF12120462A
:102BD000FFF7CEFD37212046FFF7CAFD072120462B
:102BE000FFF7C6FD10212046FFF7C2FD0321204656
:102BF000FFF7BEFD0E212046FFF7BAFD0921204652
:102C0000FFF7B6FD00212046FFF7B2FDE121204687
:102C100000F098F800212046FFF7AAFD0E2120467B
:102C2000FFF7A6FD14212046FFF7A2FD0321204651
:102C3000FFF79EFD11212046FFF79AFD0721204650
:102C4000FFF796FD31212046FFF792FDC121204676
:102C5000FFF78EFD48212046FFF78AFD0821204618
:102C6000FFF786FD0F212046FFF782FD0C2120464D
:102C7000FFF77EFD31212046FFF77AFD3621204601
:102C8000FFF776FD0F212046FFF772FD3621204623
:102C900000F058F8E8212046FFF76AFD00212046A1
:102CA000FFF79EFD38BD0000000000200008014035
:102CB00070B505460E4614462A21284600F042F813
:102CC00031462846FFF76AFD21462846FFF766FD94
:102CD00070BD70B504460D46A58029462046FFF715
:102CE000C5FD70BD30B58BB005460C46134800904D
:102CF0000194102002904FF42070039000200A905D
:102D000007908020059000200490089006904FF4D2
:102D10008050099069460A48FDF7A3FC0122022170
:102D200006480C38FDF7FEFD012202210448FDF79C
:102D30008FFC0D20FEF794FD0BB030BD0C30014030
:102D40003000024070B505460C4600BF02210B481A
:102D5000FDF7F1FD0028F9D0012210210848FDF708
:102D600029FD002204210648FDF724FD0022102140
:102D70000348FDF71FFD0148848170BD003001400C
:102D80000008014070B505460E4614462B21284622
:102D9000FFF7D8FF31462846FFF700FD21462846B9
:102DA000FFF7FCFC70BD00002DE9FF4F85B0074622
:102DB00015469846DDF848903846FDF707FA8346F1
:102DC00000265DE0BC5D4FF0000A612C04DB7A2C2C
:102DD00002DCA4F12000C4B2412C08DB5A2C06DC32
:102DE000A4F1410000EB4000284901EB800A302C9F
:102DF00008DB392C06DCA4F1160000EB4000234967
:102E000001EB800A2D2C01D1DFF884A02B2C01D1FD
:102E1000DFF880A0272C01D1DFF87CA02E2C01D177
:102E2000DFF878A02C2C01D1DFF874A05F2C01D141
:102E3000DFF870A07E2C01D1DFF86CA02F2C01D11F
:102E4000DFF868A0212C01D1DFF864A0BAF1000FEF
:102E50000DD000200C2101220FFA88F3CDE90209E0
:102E6000CDE900212AB25046069900F0DFF9B9F108
:102E7000000F01D0102000E00820284485B2761C05
:102E80005E459FDB09B0BDE8F08F0000F03C000814
:102E9000A03E0008AC3E0008B83E0008C43E000852
:102EA000D03E0008DC3E0008E83E0008F43E000882
:102EB000003F0008014605290CDC074850F82100B6
:102EC0008068064A32F81120104008B90120704786
:102ED0000020FCE70020FAE718000020E43C00088E
:102EE00070B50024002503E0FEF74AFD04446D1C84
:102EF000082DF9DB0448007810B1E010404200E0F2
:102F0000E01000B270BD00006700002070B5002422
:102F1000002503E0FEF740FD04446D1C082DF9DB9D
:102F20000448407810B1E010404200E0E01000B2E8
:102F300070BD000067000020014908607047000074
:102F400010000020012803D1FF21044A117003E082
:102F50000021024A117000BF00BF70470900002025
:102F600001490870704700000C0000202DE9F04175
:102F7000DDE90656089C3B4F3F78DFF8ECC0BCF813
:102F800000C067456CDA394F3F68DFF8D8C09CF85D
:102F900000C007EB0C1738600127DFF8D0C0DCF861
:102FA00000C0DFF8C08098F800800CEB081C8CF89B
:102FB0000C702E4F3F68DFF8ACC09CF800C007EBE8
:102FC0000C17B980294F3F68DFF898C09CF800C003
:102FD00007EB0C17FA800CB15F0000E01F46DFF82A
:102FE0008CC0DCF800C0DFF87C8098F800800CEB27
:102FF000081CACF808700CB16F0000E02F461FFAF7
:1030000087FC1A4F3F68DFF85C8098F8008007EB78
:103010000817A7F80AC0154F3F68DFF848C09CF8AA
:1030200000C007EB0C17BC73104F3F68DFF834C0CB
:103030009CF800C007EB0C17FE734FF0000C0B4F11
:103040003F68DFF8208098F8008007EB081787F8C2
:103050000DC0044F3F787F1CDFF808C08CF800706B
:10306000BDE8F081080000200A00002004000020D4
:10307000C1F30F12054B1A80054A10600022054B60
:103080001A70054A054B1A60704700000A000020BC
:103090000400002008000020D03C000810000020A0
:1030A0002DE9F0470746DDE9096C089D0B9C0020DF
:1030B000DFF86C8198F80080DFF86891B9F800902B
:1030C000C8457CDA082914D006DC01290BD0022976
:1030D0000BD0042915D10AE010290CD020290CD0DE
:1030E00040290ED10BE000200DE001200BE0022072
:1030F00009E0032007E0042005E0052003E00620A6
:1031000001E0BDE8F08700BFDFF81C81D8F800803F
:10311000DFF80C9199F8009008EB0918C8F80070D6
:103120004FF00408DFF80091D9F80090DFF8F0A024
:103130009AF800A009EB0A1989F80C80DFF8E880FA
:10314000D8F80080DFF8D89099F8009008EB0918BB
:10315000A8F80420DFF8D080D8F80080DFF8C0900D
:1031600099F8009008EB0918A8F8063024B105FA80
:1031700000F84FEA480801E005FA00F8DFF8A890E7
:10318000D9F80090DFF898A09AF800A009EB0A1986
:10319000A9F8088024B106FA00F84FEA480801E0CF
:1031A00006FA00F8DFF88090D9F80090DFF870A0F8
:1031B0009AF800A009EB0A19A9F80A8000E02DE0AE
:1031C000DFF86480D8F80080DFF8549099F8009018
:1031D00008EB091888F80E40DFF84C80D8F800801A
:1031E000DFF83C9099F8009008EB091888F80FC0B8
:1031F000DFF83480D8F80080DFF8249099F8009048
:1032000008EB091888F80D00DFF8148098F80080A2
:1032100008F10108DFF8089089F8008000BF70E726
:10322000080000200A000020040000202DE9F043DF
:1032300007ADE0CD0A9CDFF820C19CF800C0DFF8A4
:103240001C81B8F80080C4457DDADFF814C1DCF8D1
:1032500000C0DFF8048198F800800CEB081CCCF863
:1032600000004FF0020CDFF8F880D8F80080DFF89B
:10327000E89099F8009008EB091888F80CC0DFF87E
:10328000E0C0DCF800C0DFF8D08098F800800CEBDC
:10329000081CACF80420DFF8C8C0DCF800C0DFF878
:1032A000B88098F800800CEB081CACF8063014B11C
:1032B0004FEA051C01E04FEAC50CDFF8A480D8F8FE
:1032C0000080DFF8949099F8009008EB0918A8F8AE
:1032D00008C014B14FEA460C00E0B446DFF8808025
:1032E000D8F80080DFF8709099F8009008EB091882
:1032F000A8F80AC0DFF868C0DCF800C0DFF8588022
:1033000098F800800CEB081C8CF80D10DFF850C00A
:10331000DCF800C0DFF8408098F800800CEB081C57
:103320008CF80E40DFF838C0DCF800C0DFF82880E9
:1033300098F800800CEB081C8CF80F70DFF818C0B0
:103340009CF800C000E005E00CF1010CDFF80880FB
:1033500088F800C0BDE8F083080000200A000020C3
:10336000040000202DE9F04307ADE0CD0A9CDFF812
:1033700024C19CF800C0DFF82081B8F80080C44563
:103380007EDADFF818C1DCF800C0DFF8088198F8B1
:1033900000800CEB081CCCF800004FF0030CDFF8A9
:1033A000FC80D8F80080DFF8EC9099F8009008EBEA
:1033B000091888F80CC0DFF8E4C0DCF800C0DFF8BA
:1033C000D48098F800800CEB081CACF80420DFF8DF
:1033D000CCC0DCF800C0DFF8BC8098F800800CEBB3
:1033E000081CACF8063014B14FEA450C00E0AC46BE
:1033F000DFF8A880D8F80080DFF8989099F800905E
:1034000008EB0918A8F808C014B14FEA460C00E010
:10341000B4461FFA8CF8DFF884C0DCF800C0DFF88F
:10342000749099F800900CEB091CACF80A80DFF856
:103430006CC0DCF800C0DFF85C8098F800800CEB12
:10344000081C8CF80E40DFF854C0DCF800C0DFF830
:10345000448098F800800CEB081C8CF80F70DFF8A3
:103460003CC0DCF800C0DFF82C8098F800800CEB42
:10347000081C8CF80D10DFF81CC09CF800C000E0A0
:1034800005E00CF1010CDFF80C8088F800C0BDE805
:10349000F0830000080000200A0000200400002043
:1034A0000020014908707047080000202DE9F34F03
:1034B0008DB08A46F848007830B1F84802784FF469
:1034C00020715046FCF7F5FE002026E3F449096818
:1034D00001EB0016B6F906200D998A427CDCB6F99C
:1034E000061072890A440D998A4275DDF17BC1F399
:1034F00040010091B17B09B1012100E0002101915F
:10350000F17B01F0010191B1019941B17289B6F9E4
:1035100006300D99C91A511A491E491013E07289D3
:10352000B6F906300D99C91A511A491E0BE00199D6
:1035300029B1B6F906200D99891A491003E0B6F9A8
:1035400006200D99891A0891009911B14FF0FF31A9
:1035500000E00121C9B20491B6F90440317B012990
:1035600006D002297ED003297DD004297CD120E217
:10357000019911B13189491000E0318988463168DB
:103580000291009931B1089901FB0881491E029A04
:10359000114403E0089A029902FB08110F460199B1
:1035A000A1B3002C19DB3189C1F5A071A14214DD52
:1035B00000250EE0397841B13978BA4A126832F8FC
:1035C000111001EB01414AF81410A41C04990F4496
:1035D0006D1C4545EEDB4DE09EE2002513E0397899
:1035E00069B1002C0BDBB4F5A07F08DA3978AD4A5D
:1035F000126832F8111001EB01414AF81410A41CB2
:1036000004990F446D1C4545E9DB33E0FFE7002CCE
:1036100016DB3189C1F5A071A14211DD00250CE056
:10362000397831B139789F4A126832F811102AF886
:103630001410641C04990F446D1C4545F0DB19E01F
:10364000002515E0397859B1002C09DBB4F5A07FCD
:1036500006DA3978934A126832F811102AF81410F1
:10366000641C02E007E036E155E204990F446D1C4A
:103670004545E7DB4FE2717B8A4A126832F811B0A8
:10368000316802910199002975D031894FEA2118DA
:10369000089901FB08F10691002C41DB3189C1F545
:1036A000A071A1423CDD002537E0009931B10699B7
:1036B0004144491B491E029A515C03E006994A198C
:1036C0000299895C0391009999B14FF007090CE0C8
:1036D000802141FA09F1039A114019B10BEB0B411A
:1036E0004AF81410A41CA9F10109B9F1000FEFDA8E
:1036F00012E04FF000090CE0802141FA09F1039A31
:10370000114019B10BEB0B414AF81410A41C09F13C
:103710000109B9F1080FEFDB6D1C4545C5DBD9E0A8
:10372000002542E0009931B106994144491B491EE8
:10373000029A515C03E006994A190299895C039147
:103740000099C9B14FF0070911E0002C0CDBB4F56A
:10375000A07F09DA802141FA09F1039A114019B1D9
:103760000BEB0B414AF81410A41CA9F10109B9F1A3
:10377000000FEADA18E01BE04FF0000911E0002C1E
:103780000CDBB4F5A07F09DA802141FA09F1039A34
:10379000114019B10BEB0B414AF81410A41C09F1AC
:1037A0000109B9F1080FEADB6D1C4545BADB91E070
:1037B00031894FEAE108089901FB08F10691002CD4
:1037C0003DDB3189C1F5A071A14238DD002533E030
:1037D000009931B106994144491B491E029A515C36
:1037E00003E006994A190299895C0391009989B10D
:1037F0004FF007090AE0802141FA09F1039A1140CC
:1038000009B12AF814B0641CA9F10109B9F1000F3B
:10381000F1DA10E04FF000090AE0802141FA09F1E5
:10382000039A114009B12AF814B0641C09F1010986
:10383000B9F1080FF1DB6D1C4545C9DB4AE00025F5
:1038400046E0009931B106994144491B491E029A4C
:10385000515C03E006994A190299895C0391009929
:10386000B1B14FF007090FE0002C0ADBB4F5A07FDF
:1038700007DA802141FA09F1039A114009B12AF8C7
:1038800014B0641CA9F10109B9F1000FECDA1EE0D3
:103890004FF0000918E000000C0000200900002093
:1038A0000400002010000020002C0ADBB4F5A07FEB
:1038B00007DA802141FA09F1039A114009B12AF887
:1038C00014B0641C09F10109B9F1080FECDB6D1C9F
:1038D0004545B6DB1FE1019911B13189491000E07E
:1038E0003189884631680291009931B1089901FB0C
:1038F0000881491E029A114403E0029A089901FBCB
:1039000008210F46717B894A126832F811B001997B
:1039100049B3002C13DB3189C1F5A071A1420EDD42
:10392000002509E0397819B10BEB0B414AF8141066
:10393000A41C04990F446D1C4545F3DB38E00025B9
:103940000EE0397841B1002C06DBB4F5A07F03DA34
:103950000BEB0B414AF81410A41C04990F446D1C86
:103960004545EEDB24E0002C11DB3189C1F5A07167
:10397000A1420CDD002507E0397809B12AF814B01E
:10398000641C04990F446D1C4545F5DB10E00025CF
:103990000CE0397831B1002C04DBB4F5A07F01DAFA
:1039A0002AF814B0641C04990F446D1C4545F0DBE3
:1039B000B1E0019921B13189727B1141491002E0D6
:1039C0003189727B11410A91727B012101FA02F85F
:1039D000089991FBF8F10991089991FBF8F208FB1D
:1039E00012110891089901FB08F10691DDE909120D
:1039F000514305914FEA48010B9131680C910199AF
:103A0000F1B30021079140E00C990CC90599595C6C
:103A100052F8212006995718002C17DB0B99C1F595
:103A2000A071A14212DD00250DE0397841B139784D
:103A30003E4A126832F811B00BEB0B414AF81410F1
:103A40007F1CA41C6D1C4545EFDB16E0002512E031
:103A5000397869B1002C0BDBB4F5A07F08DA39782E
:103A6000324A126832F811B00BEB0B414AF81410CD
:103A70007F1CA41C6D1C4545EADB0599491C00E030
:103A800008E005910799491C07910A9A0799914204
:103A9000BADB3FE00021079138E03268059952F81F
:103AA000212006995718002C15DB0B99C1F5A07140
:103AB000A14210DD00250BE0397831B139781B4A7D
:103AC000126832F811102AF814107F1C641C6D1C47
:103AD0004545F1DB14E0002510E0397859B1002CA0
:103AE00009DBB4F5A07F06DA3978104A126832F89B
:103AF00011102AF814107F1C641C6D1C4545ECDB6A
:103B00000599491C05910799491C07910A9A07993B
:103B10009142C2DB00BF00BF401C054909788842C2
:103B2000FFF6D4AC0FB0BDE8F08F0000100000200D
:103B30000800002002480349034901607047000063
:103B400030000020303F0008143F000808B5FDF7A2
:103B500035FB00285DD03048FEF712FF4FF40061BE
:103B60002E48FFF785FA2E48FEF7FCFB0546002D90
:103B70004BD02CA0FEF79AFBFDF74CF8A5B1FDF752
:103B8000F3FC88B12AA0FEF791FB2F492FA0FEF786
:103B900065FC28B130A0FEF789FBFEF7ABFB37E0F0
:103BA00031A0FEF783FB33E03DB1274932A0FEF799
:103BB00055FC10B1FEF79EFB2AE01E211648FFF7C8
:103BC00088F8002401261FE0A01904B2A02C01DD12
:103BD0004FF0FF36002C00DA01260020009004F19F
:103BE0000A0083B20A22042127A0FFF7DDF8002093
:103BF000009004F11A0083B20A2204212AA0FFF7E0
:103C0000D3F80548FEF762FEDEE72EA0FEF74EFB76
:103C100000BF00BFFEE7000030000020840D002040
:103C200084150020496E6974202E2E2E000000009D
:103C30004C6F6164696E672070726F6772616D6D41
:103C4000202E2E2E00000000841900202F646562B3
:103C500075672E76657800005374617274696E67BB
:103C6000202E2E2E000000004465627567206661DC
:103C7000696C6564000000002F6175746F72756E69
:103C80002E766578000000004E6F2070726F6772AC
:103C9000616D2C20706C656173652C2072656164A8
:103CA000206D616E75616C005468616E6B20796F78
:103CB0007520666F72207573696E6720566972652C
:103CC000796500004E6F20534420636172640000E8
:103CD00000000000FFFFE0071F0000F88C51FFE02C
:103CE0005E979390000100100040008000200100CA
:103CF000001E0A0A1212223E42420000007C42428A
:103D0000427C4242427C0000003C424040404040F5
:103D1000423C0000007C424242424242427C00005F
:103D2000003E4040407C4040407E0000007E4040DD
:103D3000407C404040400000003E40404040464201
:103D4000423E000000424242427E42424242000065
:103D5000007C101010101010107C0000007E020279
:103D600002020202423C00000042444850605048B7
:103D7000444200000040404040404040407E00003F
:103D8000004266665A5A4242424200000042626263
:103D900052524A4A46460000003C42424242424297
:103DA000423C0000007C4242427C404040400000D7
:103DB000003C4242424242524A3C0200007C4242A3
:103DC000427C605048460000003C4240403C0202B9
:103DD000423C0000007C1010101010101010000069
:103DE0000042424242424242423C000000444444BB
:103DF00028282810101000000044445454545454EF
:103E00005428000000444428281028284444000076
:103E1000004444282810101010100000007E0202F8
:103E200004081020407E0000000038444464544CD4
:103E300044380000000010305010101010780000BE
:103E40000000384404040810207C000000003844BE
:103E500004043804443800000000081828487C088E
:103E6000083C000000007C404040780404780000DA
:103E700000001C20404078444438000000007C448E
:103E80000808101020200000000038444444384442
:103E90004438000000003844443C04044438000026
:103EA0000000000000007C00000000000000000096
:103EB00010107C1010000000006060200000000066
:103EC0000000000000000000000000006060000032
:103ED0000000000000000000606020000000000002
:103EE000000000007E7E00000000000000207A5EDE
:103EF00004000000040408081010202040400000C6
:103F000000606060606060006060000000000000B1
:103F1000000000000000000000000000D32C00089A
:103F200081290008CD2800080000000000000000E2
:103F30000000000000000000000000000000000081
:103F400000000000683F0008000000208000000022
:103F500028010008E83F000880000020684B0000AE
:103F600044010008D1FBFFFF00000000000000003A
:103F70000000000001000000000000000000000040
:103F800000080140000801400010014000100140FD
:103F90000010014000080140000000000000000087
:103FA000000000000000000000000000FFFFFFFF15
:103FB0000000000000000000000000000000000001
:103FC00000000000000000000000000000000000F1
:103FD00000000000000000000102030401020304CD
:083FE0000607080902040608A7
:040000050800018D61
:00000001FF
